{
  "_format": "hh-sol-artifact-1",
  "contractName": "UniversalLogistics",
  "sourceName": "contracts/UniversalLogistics.sol",
  "abi": [
    {
      "inputs": [],
      "stateMutability": "nonpayable",
      "type": "constructor"
    },
    {
      "inputs": [],
      "name": "AccessControlBadConfirmation",
      "type": "error"
    },
    {
      "inputs": [
        {
          "internalType": "address",
          "name": "account",
          "type": "address"
        },
        {
          "internalType": "bytes32",
          "name": "neededRole",
          "type": "bytes32"
        }
      ],
      "name": "AccessControlUnauthorizedAccount",
      "type": "error"
    },
    {
      "anonymous": false,
      "inputs": [
        {
          "indexed": false,
          "internalType": "string",
          "name": "batchId",
          "type": "string"
        },
        {
          "indexed": false,
          "internalType": "string",
          "name": "productId",
          "type": "string"
        },
        {
          "indexed": false,
          "internalType": "uint256",
          "name": "quantity",
          "type": "uint256"
        },
        {
          "indexed": true,
          "internalType": "address",
          "name": "owner",
          "type": "address"
        }
      ],
      "name": "BatchCreated",
      "type": "event"
    },
    {
      "anonymous": false,
      "inputs": [
        {
          "indexed": false,
          "internalType": "string",
          "name": "batchId",
          "type": "string"
        },
        {
          "indexed": true,
          "internalType": "address",
          "name": "from",
          "type": "address"
        },
        {
          "indexed": true,
          "internalType": "address",
          "name": "to",
          "type": "address"
        }
      ],
      "name": "BatchOwnershipTransferred",
      "type": "event"
    },
    {
      "anonymous": false,
      "inputs": [
        {
          "indexed": false,
          "internalType": "string",
          "name": "parentId",
          "type": "string"
        },
        {
          "indexed": false,
          "internalType": "string",
          "name": "newBatchId",
          "type": "string"
        },
        {
          "indexed": false,
          "internalType": "uint256",
          "name": "quantity",
          "type": "uint256"
        }
      ],
      "name": "BatchSplit",
      "type": "event"
    },
    {
      "anonymous": false,
      "inputs": [
        {
          "indexed": false,
          "internalType": "string",
          "name": "id",
          "type": "string"
        },
        {
          "indexed": false,
          "internalType": "string",
          "name": "name",
          "type": "string"
        },
        {
          "indexed": true,
          "internalType": "address",
          "name": "manufacturer",
          "type": "address"
        }
      ],
      "name": "ProductRegistered",
      "type": "event"
    },
    {
      "anonymous": false,
      "inputs": [
        {
          "indexed": false,
          "internalType": "string",
          "name": "batchId",
          "type": "string"
        },
        {
          "indexed": false,
          "internalType": "string",
          "name": "reason",
          "type": "string"
        },
        {
          "indexed": true,
          "internalType": "address",
          "name": "initiator",
          "type": "address"
        }
      ],
      "name": "RecallInitiated",
      "type": "event"
    },
    {
      "anonymous": false,
      "inputs": [
        {
          "indexed": true,
          "internalType": "bytes32",
          "name": "role",
          "type": "bytes32"
        },
        {
          "indexed": true,
          "internalType": "bytes32",
          "name": "previousAdminRole",
          "type": "bytes32"
        },
        {
          "indexed": true,
          "internalType": "bytes32",
          "name": "newAdminRole",
          "type": "bytes32"
        }
      ],
      "name": "RoleAdminChanged",
      "type": "event"
    },
    {
      "anonymous": false,
      "inputs": [
        {
          "indexed": true,
          "internalType": "bytes32",
          "name": "role",
          "type": "bytes32"
        },
        {
          "indexed": true,
          "internalType": "address",
          "name": "account",
          "type": "address"
        },
        {
          "indexed": true,
          "internalType": "address",
          "name": "sender",
          "type": "address"
        }
      ],
      "name": "RoleGranted",
      "type": "event"
    },
    {
      "anonymous": false,
      "inputs": [
        {
          "indexed": true,
          "internalType": "bytes32",
          "name": "role",
          "type": "bytes32"
        },
        {
          "indexed": true,
          "internalType": "address",
          "name": "account",
          "type": "address"
        },
        {
          "indexed": true,
          "internalType": "address",
          "name": "sender",
          "type": "address"
        }
      ],
      "name": "RoleRevoked",
      "type": "event"
    },
    {
      "anonymous": false,
      "inputs": [
        {
          "indexed": false,
          "internalType": "string",
          "name": "batchId",
          "type": "string"
        },
        {
          "indexed": false,
          "internalType": "uint256",
          "name": "quantity",
          "type": "uint256"
        },
        {
          "indexed": true,
          "internalType": "address",
          "name": "seller",
          "type": "address"
        }
      ],
      "name": "SaleRecorded",
      "type": "event"
    },
    {
      "anonymous": false,
      "inputs": [
        {
          "indexed": false,
          "internalType": "string",
          "name": "shipmentId",
          "type": "string"
        },
        {
          "indexed": true,
          "internalType": "address",
          "name": "sender",
          "type": "address"
        },
        {
          "indexed": true,
          "internalType": "address",
          "name": "receiver",
          "type": "address"
        },
        {
          "indexed": true,
          "internalType": "address",
          "name": "transporter",
          "type": "address"
        }
      ],
      "name": "ShipmentCreated",
      "type": "event"
    },
    {
      "anonymous": false,
      "inputs": [
        {
          "indexed": false,
          "internalType": "string",
          "name": "shipmentId",
          "type": "string"
        },
        {
          "indexed": false,
          "internalType": "enum UniversalLogistics.ShipmentStatus",
          "name": "status",
          "type": "uint8"
        },
        {
          "indexed": true,
          "internalType": "address",
          "name": "actor",
          "type": "address"
        },
        {
          "indexed": false,
          "internalType": "string",
          "name": "location",
          "type": "string"
        }
      ],
      "name": "ShipmentStatusChanged",
      "type": "event"
    },
    {
      "anonymous": false,
      "inputs": [
        {
          "indexed": true,
          "internalType": "address",
          "name": "transporter",
          "type": "address"
        },
        {
          "indexed": true,
          "internalType": "address",
          "name": "manufacturer",
          "type": "address"
        }
      ],
      "name": "TransporterAdded",
      "type": "event"
    },
    {
      "anonymous": false,
      "inputs": [
        {
          "indexed": true,
          "internalType": "address",
          "name": "transporter",
          "type": "address"
        },
        {
          "indexed": true,
          "internalType": "address",
          "name": "manufacturer",
          "type": "address"
        }
      ],
      "name": "TransporterApproved",
      "type": "event"
    },
    {
      "anonymous": false,
      "inputs": [
        {
          "indexed": true,
          "internalType": "address",
          "name": "transporter",
          "type": "address"
        },
        {
          "indexed": true,
          "internalType": "address",
          "name": "manufacturer",
          "type": "address"
        }
      ],
      "name": "TransporterRejected",
      "type": "event"
    },
    {
      "anonymous": false,
      "inputs": [
        {
          "indexed": true,
          "internalType": "address",
          "name": "transporter",
          "type": "address"
        },
        {
          "indexed": true,
          "internalType": "address",
          "name": "requestedBy",
          "type": "address"
        },
        {
          "indexed": true,
          "internalType": "address",
          "name": "manufacturer",
          "type": "address"
        }
      ],
      "name": "TransporterRequested",
      "type": "event"
    },
    {
      "inputs": [],
      "name": "DEFAULT_ADMIN_ROLE",
      "outputs": [
        {
          "internalType": "bytes32",
          "name": "",
          "type": "bytes32"
        }
      ],
      "stateMutability": "view",
      "type": "function"
    },
    {
      "inputs": [],
      "name": "DISTRIBUTOR_ROLE",
      "outputs": [
        {
          "internalType": "bytes32",
          "name": "",
          "type": "bytes32"
        }
      ],
      "stateMutability": "view",
      "type": "function"
    },
    {
      "inputs": [],
      "name": "LOGISTICS_ROLE",
      "outputs": [
        {
          "internalType": "bytes32",
          "name": "",
          "type": "bytes32"
        }
      ],
      "stateMutability": "view",
      "type": "function"
    },
    {
      "inputs": [],
      "name": "MANUFACTURER_ROLE",
      "outputs": [
        {
          "internalType": "bytes32",
          "name": "",
          "type": "bytes32"
        }
      ],
      "stateMutability": "view",
      "type": "function"
    },
    {
      "inputs": [],
      "name": "REGULATOR_ROLE",
      "outputs": [
        {
          "internalType": "bytes32",
          "name": "",
          "type": "bytes32"
        }
      ],
      "stateMutability": "view",
      "type": "function"
    },
    {
      "inputs": [],
      "name": "RETAILER_ROLE",
      "outputs": [
        {
          "internalType": "bytes32",
          "name": "",
          "type": "bytes32"
        }
      ],
      "stateMutability": "view",
      "type": "function"
    },
    {
      "inputs": [
        {
          "internalType": "string",
          "name": "_shipmentId",
          "type": "string"
        },
        {
          "internalType": "string",
          "name": "_location",
          "type": "string"
        }
      ],
      "name": "acceptDelivery",
      "outputs": [],
      "stateMutability": "nonpayable",
      "type": "function"
    },
    {
      "inputs": [
        {
          "internalType": "address",
          "name": "_wallet",
          "type": "address"
        },
        {
          "internalType": "string",
          "name": "_name",
          "type": "string"
        },
        {
          "internalType": "string",
          "name": "_licenseNumber",
          "type": "string"
        },
        {
          "internalType": "string",
          "name": "_contactNumber",
          "type": "string"
        },
        {
          "internalType": "bool",
          "name": "_coldChainCapable",
          "type": "bool"
        }
      ],
      "name": "addTransporterToPool",
      "outputs": [],
      "stateMutability": "nonpayable",
      "type": "function"
    },
    {
      "inputs": [
        {
          "internalType": "address",
          "name": "_transporterWallet",
          "type": "address"
        }
      ],
      "name": "approveTransporter",
      "outputs": [],
      "stateMutability": "nonpayable",
      "type": "function"
    },
    {
      "inputs": [
        {
          "internalType": "string",
          "name": "",
          "type": "string"
        }
      ],
      "name": "batches",
      "outputs": [
        {
          "internalType": "string",
          "name": "id",
          "type": "string"
        },
        {
          "internalType": "string",
          "name": "productId",
          "type": "string"
        },
        {
          "internalType": "string",
          "name": "parentBatchId",
          "type": "string"
        },
        {
          "internalType": "uint256",
          "name": "quantity",
          "type": "uint256"
        },
        {
          "internalType": "uint256",
          "name": "mfgDate",
          "type": "uint256"
        },
        {
          "internalType": "uint256",
          "name": "expDate",
          "type": "uint256"
        },
        {
          "internalType": "address",
          "name": "currentOwner",
          "type": "address"
        },
        {
          "internalType": "enum UniversalLogistics.BatchStatus",
          "name": "status",
          "type": "uint8"
        },
        {
          "internalType": "string",
          "name": "location",
          "type": "string"
        }
      ],
      "stateMutability": "view",
      "type": "function"
    },
    {
      "inputs": [
        {
          "internalType": "string",
          "name": "_shipmentId",
          "type": "string"
        },
        {
          "internalType": "string",
          "name": "_location",
          "type": "string"
        }
      ],
      "name": "completeDelivery",
      "outputs": [],
      "stateMutability": "nonpayable",
      "type": "function"
    },
    {
      "inputs": [
        {
          "internalType": "string",
          "name": "_shipmentId",
          "type": "string"
        },
        {
          "internalType": "string",
          "name": "_location",
          "type": "string"
        }
      ],
      "name": "confirmPickup",
      "outputs": [],
      "stateMutability": "nonpayable",
      "type": "function"
    },
    {
      "inputs": [
        {
          "internalType": "string",
          "name": "_batchId",
          "type": "string"
        },
        {
          "internalType": "string",
          "name": "_productId",
          "type": "string"
        },
        {
          "internalType": "uint256",
          "name": "_quantity",
          "type": "uint256"
        },
        {
          "internalType": "uint256",
          "name": "_expDate",
          "type": "uint256"
        },
        {
          "internalType": "string",
          "name": "_location",
          "type": "string"
        }
      ],
      "name": "createBatch",
      "outputs": [],
      "stateMutability": "nonpayable",
      "type": "function"
    },
    {
      "inputs": [
        {
          "internalType": "string",
          "name": "_shipmentId",
          "type": "string"
        },
        {
          "internalType": "string[]",
          "name": "_batchIds",
          "type": "string[]"
        },
        {
          "internalType": "address",
          "name": "_receiver",
          "type": "address"
        },
        {
          "internalType": "address",
          "name": "_transporter",
          "type": "address"
        },
        {
          "internalType": "string",
          "name": "_startLocation",
          "type": "string"
        },
        {
          "internalType": "string",
          "name": "_vehicleNumber",
          "type": "string"
        },
        {
          "internalType": "string",
          "name": "_driverName",
          "type": "string"
        },
        {
          "internalType": "string",
          "name": "_driverContact",
          "type": "string"
        }
      ],
      "name": "createShipment",
      "outputs": [],
      "stateMutability": "nonpayable",
      "type": "function"
    },
    {
      "inputs": [
        {
          "internalType": "address",
          "name": "_owner",
          "type": "address"
        }
      ],
      "name": "getOwnerBatchesCount",
      "outputs": [
        {
          "internalType": "uint256",
          "name": "",
          "type": "uint256"
        }
      ],
      "stateMutability": "view",
      "type": "function"
    },
    {
      "inputs": [
        {
          "internalType": "address",
          "name": "_manufacturer",
          "type": "address"
        }
      ],
      "name": "getPendingRequestsCount",
      "outputs": [
        {
          "internalType": "uint256",
          "name": "",
          "type": "uint256"
        }
      ],
      "stateMutability": "view",
      "type": "function"
    },
    {
      "inputs": [
        {
          "internalType": "bytes32",
          "name": "role",
          "type": "bytes32"
        }
      ],
      "name": "getRoleAdmin",
      "outputs": [
        {
          "internalType": "bytes32",
          "name": "",
          "type": "bytes32"
        }
      ],
      "stateMutability": "view",
      "type": "function"
    },
    {
      "inputs": [
        {
          "internalType": "string",
          "name": "_shipmentId",
          "type": "string"
        }
      ],
      "name": "getShipmentBatches",
      "outputs": [
        {
          "internalType": "string[]",
          "name": "",
          "type": "string[]"
        }
      ],
      "stateMutability": "view",
      "type": "function"
    },
    {
      "inputs": [
        {
          "internalType": "address",
          "name": "_manufacturer",
          "type": "address"
        }
      ],
      "name": "getTransporterPoolCount",
      "outputs": [
        {
          "internalType": "uint256",
          "name": "",
          "type": "uint256"
        }
      ],
      "stateMutability": "view",
      "type": "function"
    },
    {
      "inputs": [
        {
          "internalType": "address",
          "name": "_user",
          "type": "address"
        }
      ],
      "name": "getUserShipmentsCount",
      "outputs": [
        {
          "internalType": "uint256",
          "name": "",
          "type": "uint256"
        }
      ],
      "stateMutability": "view",
      "type": "function"
    },
    {
      "inputs": [
        {
          "internalType": "address",
          "name": "account",
          "type": "address"
        }
      ],
      "name": "grantDistributorRole",
      "outputs": [],
      "stateMutability": "nonpayable",
      "type": "function"
    },
    {
      "inputs": [
        {
          "internalType": "address",
          "name": "account",
          "type": "address"
        }
      ],
      "name": "grantLogisticsRole",
      "outputs": [],
      "stateMutability": "nonpayable",
      "type": "function"
    },
    {
      "inputs": [
        {
          "internalType": "address",
          "name": "account",
          "type": "address"
        }
      ],
      "name": "grantManufacturerRole",
      "outputs": [],
      "stateMutability": "nonpayable",
      "type": "function"
    },
    {
      "inputs": [
        {
          "internalType": "address",
          "name": "account",
          "type": "address"
        }
      ],
      "name": "grantRetailerRole",
      "outputs": [],
      "stateMutability": "nonpayable",
      "type": "function"
    },
    {
      "inputs": [
        {
          "internalType": "bytes32",
          "name": "role",
          "type": "bytes32"
        },
        {
          "internalType": "address",
          "name": "account",
          "type": "address"
        }
      ],
      "name": "grantRole",
      "outputs": [],
      "stateMutability": "nonpayable",
      "type": "function"
    },
    {
      "inputs": [
        {
          "internalType": "address",
          "name": "",
          "type": "address"
        },
        {
          "internalType": "address",
          "name": "",
          "type": "address"
        }
      ],
      "name": "hasPendingRequest",
      "outputs": [
        {
          "internalType": "bool",
          "name": "",
          "type": "bool"
        }
      ],
      "stateMutability": "view",
      "type": "function"
    },
    {
      "inputs": [
        {
          "internalType": "bytes32",
          "name": "role",
          "type": "bytes32"
        },
        {
          "internalType": "address",
          "name": "account",
          "type": "address"
        }
      ],
      "name": "hasRole",
      "outputs": [
        {
          "internalType": "bool",
          "name": "",
          "type": "bool"
        }
      ],
      "stateMutability": "view",
      "type": "function"
    },
    {
      "inputs": [
        {
          "internalType": "string",
          "name": "_batchId",
          "type": "string"
        },
        {
          "internalType": "string",
          "name": "_reason",
          "type": "string"
        }
      ],
      "name": "initiateRecall",
      "outputs": [],
      "stateMutability": "nonpayable",
      "type": "function"
    },
    {
      "inputs": [
        {
          "internalType": "address",
          "name": "",
          "type": "address"
        },
        {
          "internalType": "address",
          "name": "",
          "type": "address"
        }
      ],
      "name": "isApprovedTransporter",
      "outputs": [
        {
          "internalType": "bool",
          "name": "",
          "type": "bool"
        }
      ],
      "stateMutability": "view",
      "type": "function"
    },
    {
      "inputs": [
        {
          "internalType": "address",
          "name": "",
          "type": "address"
        },
        {
          "internalType": "uint256",
          "name": "",
          "type": "uint256"
        }
      ],
      "name": "manufacturerTransporterPool",
      "outputs": [
        {
          "internalType": "address",
          "name": "",
          "type": "address"
        }
      ],
      "stateMutability": "view",
      "type": "function"
    },
    {
      "inputs": [
        {
          "internalType": "address",
          "name": "",
          "type": "address"
        },
        {
          "internalType": "uint256",
          "name": "",
          "type": "uint256"
        }
      ],
      "name": "ownerToBatches",
      "outputs": [
        {
          "internalType": "string",
          "name": "",
          "type": "string"
        }
      ],
      "stateMutability": "view",
      "type": "function"
    },
    {
      "inputs": [
        {
          "internalType": "address",
          "name": "",
          "type": "address"
        },
        {
          "internalType": "uint256",
          "name": "",
          "type": "uint256"
        }
      ],
      "name": "pendingTransporterRequests",
      "outputs": [
        {
          "internalType": "address",
          "name": "",
          "type": "address"
        }
      ],
      "stateMutability": "view",
      "type": "function"
    },
    {
      "inputs": [
        {
          "internalType": "string",
          "name": "",
          "type": "string"
        }
      ],
      "name": "products",
      "outputs": [
        {
          "internalType": "string",
          "name": "id",
          "type": "string"
        },
        {
          "internalType": "string",
          "name": "name",
          "type": "string"
        },
        {
          "internalType": "string",
          "name": "category",
          "type": "string"
        },
        {
          "internalType": "address",
          "name": "manufacturer",
          "type": "address"
        },
        {
          "internalType": "bool",
          "name": "registered",
          "type": "bool"
        }
      ],
      "stateMutability": "view",
      "type": "function"
    },
    {
      "inputs": [
        {
          "internalType": "string",
          "name": "_id",
          "type": "string"
        },
        {
          "internalType": "string",
          "name": "_name",
          "type": "string"
        },
        {
          "internalType": "string",
          "name": "_category",
          "type": "string"
        }
      ],
      "name": "registerProduct",
      "outputs": [],
      "stateMutability": "nonpayable",
      "type": "function"
    },
    {
      "inputs": [
        {
          "internalType": "address",
          "name": "_transporterWallet",
          "type": "address"
        }
      ],
      "name": "rejectTransporter",
      "outputs": [],
      "stateMutability": "nonpayable",
      "type": "function"
    },
    {
      "inputs": [
        {
          "internalType": "bytes32",
          "name": "role",
          "type": "bytes32"
        },
        {
          "internalType": "address",
          "name": "callerConfirmation",
          "type": "address"
        }
      ],
      "name": "renounceRole",
      "outputs": [],
      "stateMutability": "nonpayable",
      "type": "function"
    },
    {
      "inputs": [
        {
          "internalType": "address",
          "name": "_manufacturer",
          "type": "address"
        },
        {
          "internalType": "address",
          "name": "_transporterWallet",
          "type": "address"
        },
        {
          "internalType": "string",
          "name": "_name",
          "type": "string"
        },
        {
          "internalType": "string",
          "name": "_licenseNumber",
          "type": "string"
        },
        {
          "internalType": "string",
          "name": "_contactNumber",
          "type": "string"
        },
        {
          "internalType": "bool",
          "name": "_coldChainCapable",
          "type": "bool"
        }
      ],
      "name": "requestTransporter",
      "outputs": [],
      "stateMutability": "nonpayable",
      "type": "function"
    },
    {
      "inputs": [
        {
          "internalType": "address",
          "name": "",
          "type": "address"
        },
        {
          "internalType": "address",
          "name": "",
          "type": "address"
        }
      ],
      "name": "requestedBy",
      "outputs": [
        {
          "internalType": "address",
          "name": "",
          "type": "address"
        }
      ],
      "stateMutability": "view",
      "type": "function"
    },
    {
      "inputs": [
        {
          "internalType": "bytes32",
          "name": "role",
          "type": "bytes32"
        },
        {
          "internalType": "address",
          "name": "account",
          "type": "address"
        }
      ],
      "name": "revokeRole",
      "outputs": [],
      "stateMutability": "nonpayable",
      "type": "function"
    },
    {
      "inputs": [
        {
          "internalType": "string",
          "name": "_shipmentId",
          "type": "string"
        },
        {
          "internalType": "string[]",
          "name": "_batchIds",
          "type": "string[]"
        },
        {
          "internalType": "address",
          "name": "_receiver",
          "type": "address"
        },
        {
          "internalType": "string",
          "name": "_location",
          "type": "string"
        },
        {
          "internalType": "string",
          "name": "_vehicleNumber",
          "type": "string"
        },
        {
          "internalType": "string",
          "name": "_driverName",
          "type": "string"
        },
        {
          "internalType": "string",
          "name": "_driverContact",
          "type": "string"
        }
      ],
      "name": "selfDeliverShipment",
      "outputs": [],
      "stateMutability": "nonpayable",
      "type": "function"
    },
    {
      "inputs": [
        {
          "internalType": "string",
          "name": "_batchId",
          "type": "string"
        },
        {
          "internalType": "uint256",
          "name": "_qty",
          "type": "uint256"
        }
      ],
      "name": "sellToCustomer",
      "outputs": [],
      "stateMutability": "nonpayable",
      "type": "function"
    },
    {
      "inputs": [
        {
          "internalType": "string",
          "name": "",
          "type": "string"
        }
      ],
      "name": "shipments",
      "outputs": [
        {
          "internalType": "string",
          "name": "id",
          "type": "string"
        },
        {
          "internalType": "address",
          "name": "sender",
          "type": "address"
        },
        {
          "internalType": "address",
          "name": "receiver",
          "type": "address"
        },
        {
          "internalType": "address",
          "name": "transporter",
          "type": "address"
        },
        {
          "internalType": "enum UniversalLogistics.ShipmentStatus",
          "name": "status",
          "type": "uint8"
        },
        {
          "internalType": "string",
          "name": "notes",
          "type": "string"
        },
        {
          "internalType": "uint256",
          "name": "timestamp",
          "type": "uint256"
        },
        {
          "internalType": "string",
          "name": "vehicleNumber",
          "type": "string"
        },
        {
          "internalType": "string",
          "name": "driverName",
          "type": "string"
        },
        {
          "internalType": "string",
          "name": "driverContact",
          "type": "string"
        }
      ],
      "stateMutability": "view",
      "type": "function"
    },
    {
      "inputs": [
        {
          "internalType": "string",
          "name": "_parentBatchId",
          "type": "string"
        },
        {
          "internalType": "string",
          "name": "_newBatchId",
          "type": "string"
        },
        {
          "internalType": "uint256",
          "name": "_quantity",
          "type": "uint256"
        }
      ],
      "name": "splitBatch",
      "outputs": [],
      "stateMutability": "nonpayable",
      "type": "function"
    },
    {
      "inputs": [
        {
          "internalType": "bytes4",
          "name": "interfaceId",
          "type": "bytes4"
        }
      ],
      "name": "supportsInterface",
      "outputs": [
        {
          "internalType": "bool",
          "name": "",
          "type": "bool"
        }
      ],
      "stateMutability": "view",
      "type": "function"
    },
    {
      "inputs": [
        {
          "internalType": "address",
          "name": "",
          "type": "address"
        }
      ],
      "name": "transporters",
      "outputs": [
        {
          "internalType": "address",
          "name": "wallet",
          "type": "address"
        },
        {
          "internalType": "string",
          "name": "name",
          "type": "string"
        },
        {
          "internalType": "string",
          "name": "licenseNumber",
          "type": "string"
        },
        {
          "internalType": "string",
          "name": "contactNumber",
          "type": "string"
        },
        {
          "internalType": "bool",
          "name": "coldChainCapable",
          "type": "bool"
        },
        {
          "internalType": "enum UniversalLogistics.TransporterStatus",
          "name": "status",
          "type": "uint8"
        },
        {
          "internalType": "address",
          "name": "approvedBy",
          "type": "address"
        },
        {
          "internalType": "uint256",
          "name": "registeredAt",
          "type": "uint256"
        }
      ],
      "stateMutability": "view",
      "type": "function"
    },
    {
      "inputs": [
        {
          "internalType": "string",
          "name": "_shipmentId",
          "type": "string"
        },
        {
          "internalType": "string",
          "name": "_logData",
          "type": "string"
        },
        {
          "internalType": "string",
          "name": "_location",
          "type": "string"
        }
      ],
      "name": "updateTransitLog",
      "outputs": [],
      "stateMutability": "nonpayable",
      "type": "function"
    },
    {
      "inputs": [
        {
          "internalType": "address",
          "name": "",
          "type": "address"
        },
        {
          "internalType": "uint256",
          "name": "",
          "type": "uint256"
        }
      ],
      "name": "userToShipments",
      "outputs": [
        {
          "internalType": "string",
          "name": "",
          "type": "string"
        }
      ],
      "stateMutability": "view",
      "type": "function"
    }
  ],
  "bytecode": "0x60806040523480156200001157600080fd5b506200001f600033620000da565b506200004c7feefb95e842a3287179d933b4460be539a1d5af11aa8b325bb45c5c8dc92de4ed33620000da565b50620000797ffbd454f36a7e1a388bd6fc3ab10d434aa4578f811acbbcf33afb1c697486313c33620000da565b50620000a67f2a5f906c256a5d799494fcd066e1f6c077689de1cdb65052a1624de4bace99bf33620000da565b50620000d37fded9b5e0e0e3a2b3f09a0bc36ec64b9bf7a7c2319f3c4d9cff5ce48714257b2133620000da565b5062000189565b6000828152602081815260408083206001600160a01b038516845290915281205460ff166200017f576000838152602081815260408083206001600160a01b03861684529091529020805460ff19166001179055620001363390565b6001600160a01b0316826001600160a01b0316847f2f8788117e7eff1d82e926ec794901d17c78024a50270940304540a733656f0d60405160405180910390a450600162000183565b5060005b92915050565b6149e880620001996000396000f3fe608060405234801561001057600080fd5b50600436106102955760003560e01c80637d25c5ec11610167578063c794e3dc116100ce578063ed97be1511610087578063ed97be1514610715578063f0bd87cc14610728578063f41f24491461074f578063f93cb5fc14610762578063f9f806e114610790578063fc0ee371146107a357600080fd5b8063c794e3dc1461068f578063cf30c705146106a2578063d26d149f146106b5578063d547741f146106c8578063e25bd158146106db578063e67070451461070257600080fd5b8063965288b011610120578063965288b0146105f8578063a1566b311461060d578063a217fddf14610636578063b31e976f1461063e578063bc0e74dd14610667578063c602d3fb1461067a57600080fd5b80637d25c5ec1461053a5780637ef1446a1461056e57806385f1c06814610596578063881c972f146105bf5780638bba2a0a146105d257806391d14854146105e557600080fd5b80632ee45c921161020b5780634d178696116101c45780634d1786961461049c57806355c4281e146104c55780635b46a677146104d85780635ceaef5b146104eb5780636d94c6d5146105145780636f796b021461052757600080fd5b80632ee45c92146104025780632f2ff15d146104225780633406b7181461043557806336568abe1461044857806337c294741461045b57806347ad8c871461046e57600080fd5b8063144bf5891161025d578063144bf589146103325780631b7de013146103675780631e2b2f131461037a5780632115e7bf146103a5578063248a9ca3146103cc57806329300d59146103ef57600080fd5b80630186a4231461029a57806301ffc9a7146102c757806309ddf75a146102ea578063121ddd891461030a5780631439145c1461031f575b600080fd5b6102ad6102a8366004613a23565b6107b6565b6040516102be959493929190613aaf565b60405180910390f35b6102da6102d5366004613b0b565b610997565b60405190151581526020016102be565b6102fd6102f8366004613a23565b6109ce565b6040516102be9190613b3c565b61031d610318366004613ba0565b610ac8565b005b61031d61032d366004613c1f565b610bc8565b6103597f20b5f7ac978e5d6199de06401411960dfa81d2f762655f6206bdc61d46fc19e681565b6040519081526020016102be565b61031d610375366004613ba0565b610cbb565b61038d610388366004613c3a565b610e17565b6040516001600160a01b0390911681526020016102be565b6103597f2a5f906c256a5d799494fcd066e1f6c077689de1cdb65052a1624de4bace99bf81565b6103596103da366004613c64565b60009081526020819052604090206001015490565b61031d6103fd366004613c7d565b610e4f565b610415610410366004613c3a565b6110e7565b6040516102be9190613d18565b61031d610430366004613d2b565b6111a0565b61031d610443366004613d57565b6111cb565b61031d610456366004613d2b565b61135f565b61031d610469366004613ba0565b611397565b6102da61047c366004613dde565b600860209081526000928352604080842090915290825290205460ff1681565b6103596104aa366004613c1f565b6001600160a01b03166000908152600b602052604090205490565b61031d6104d3366004613c1f565b611472565b61031d6104e6366004613d57565b611495565b6104fe6104f9366004613a23565b611535565b6040516102be9a99989796959493929190613e32565b61031d610522366004613f79565b61184c565b61031d6105353660046140a0565b611d30565b61038d610548366004613dde565b60096020908152600092835260408084209091529082529020546001600160a01b031681565b61058161057c366004613a23565b611fe3565b6040516102be99989796959493929190614149565b6103596105a4366004613c1f565b6001600160a01b031660009081526005602052604090205490565b61031d6105cd3660046141e4565b61226a565b61031d6105e0366004613c1f565b6123bd565b6102da6105f3366004613d2b565b6123f2565b61035960008051602061499383398151915281565b61035961061b366004613c1f565b6001600160a01b03166000908152600a602052604090205490565b610359600081565b61035961064c366004613c1f565b6001600160a01b031660009081526007602052604090205490565b61031d610675366004613ba0565b61241b565b61035960008051602061495383398151915281565b61038d61069d366004613c3a565b612774565b6104156106b0366004613c3a565b612790565b61031d6106c3366004614228565b6127ac565b61031d6106d6366004613d2b565b612a90565b6106ee6106e9366004613c1f565b612ab5565b6040516102be9897969594939291906142e0565b61031d61071036600461436b565b612cab565b61031d610723366004613c1f565b61318e565b6103597ffbd454f36a7e1a388bd6fc3ab10d434aa4578f811acbbcf33afb1c697486313c81565b61031d61075d366004614471565b6131b1565b6102da610770366004613dde565b600660209081526000928352604080842090915290825290205460ff1681565b61031d61079e366004613c1f565b6135c0565b61031d6107b1366004613c1f565b6135f5565b80516020818301810180516001825292820191909301209152805481906107dc906144dd565b80601f0160208091040260200160405190810160405280929190818152602001828054610808906144dd565b80156108555780601f1061082a57610100808354040283529160200191610855565b820191906000526020600020905b81548152906001019060200180831161083857829003601f168201915b50505050509080600101805461086a906144dd565b80601f0160208091040260200160405190810160405280929190818152602001828054610896906144dd565b80156108e35780601f106108b8576101008083540402835291602001916108e3565b820191906000526020600020905b8154815290600101906020018083116108c657829003601f168201915b5050505050908060020180546108f8906144dd565b80601f0160208091040260200160405190810160405280929190818152602001828054610924906144dd565b80156109715780601f1061094657610100808354040283529160200191610971565b820191906000526020600020905b81548152906001019060200180831161095457829003601f168201915b505050600390930154919250506001600160a01b0381169060ff600160a01b9091041685565b60006001600160e01b03198216637965db0b60e01b14806109c857506301ffc9a760e01b6001600160e01b03198316145b92915050565b60606003826040516109e09190614517565b9081526020016040518091039020600101805480602002602001604051908101604052809291908181526020016000905b82821015610abd578382906000526020600020018054610a30906144dd565b80601f0160208091040260200160405190810160405280929190818152602001828054610a5c906144dd565b8015610aa95780601f10610a7e57610100808354040283529160200191610aa9565b820191906000526020600020905b815481529060010190602001808311610a8c57829003601f168201915b505050505081526020019060010190610a11565b505050509050919050565b6000600383604051610ada9190614517565b90815260405190819003602001902060048101549091506001600160a01b03163314610b215760405162461bcd60e51b8152600401610b1890614533565b60405180910390fd5b60006004820154600160a01b900460ff166005811115610b4357610b43613e08565b14610b815760405162461bcd60e51b815260206004820152600e60248201526d496e76616c69642073746174757360901b6044820152606401610b18565b60048101805460ff60a01b1916600160a01b179055604051339060008051602061497383398151915290610bbb908690600190879061456a565b60405180910390a2505050565b600080516020614993833981519152610be08161376a565b3360009081526008602090815260408083206001600160a01b038616845290915290205460ff16610c485760405162461bcd60e51b8152602060048201526012602482015271139bc81c195b991a5b99c81c995c5d595cdd60721b6044820152606401610b18565b6001600160a01b0382166000818152600460208181526040808420909201805461ff0019166102001790553380845260088252828420858552909152818320805460ff1916905590519092917f44a8ffdda7b3208afd28974240794ff0c8e2496511a5d2e0e07b74c23a6525d291a35050565b6000600383604051610ccd9190614517565b90815260405190819003602001902060048101549091506001600160a01b03163314610d0b5760405162461bcd60e51b8152600401610b1890614533565b60048101805460ff60a01b1916600360a01b17905560005b6001820154811015610dea57600280836001018381548110610d4757610d476145a6565b90600052602060002001604051610d5e91906145bc565b908152602001604051809103902060060160146101000a81548160ff02191690836006811115610d9057610d90613e08565b0217905550826002836001018381548110610dad57610dad6145a6565b90600052602060002001604051610dc491906145bc565b90815260200160405180910390206007019081610de19190614682565b50600101610d23565b50336001600160a01b031660008051602061497383398151915284600385604051610bbb9392919061456a565b60056020528160005260406000208181548110610e3357600080fd5b6000918252602090912001546001600160a01b03169150829050565b600080516020614993833981519152610e678161376a565b600185604051610e779190614517565b9081526040519081900360200190206003015460ff600160a01b90910416610eda5760405162461bcd60e51b8152602060048201526016602482015275141c9bd91d58dd081b9bdd081c9959da5cdd195c995960521b6044820152606401610b18565b600286604051610eea9190614517565b908152602001604051809103902060040154600014610f3a5760405162461bcd60e51b815260206004820152600c60248201526b42617463682065786973747360a01b6044820152606401610b18565b60408051610120810182528781526020808201889052825190810183526000808252928201526060810186905242608082015260a081018590523360c08201529060e0820190815260200183815250600287604051610f999190614517565b90815260405190819003602001902081518190610fb69082614682565b5060208201516001820190610fcb9082614682565b5060408201516002820190610fe09082614682565b50606082015160038201556080820151600482015560a0820151600582015560c0820151600680830180546001600160a01b039093166001600160a01b031984168117825560e08601519391926001600160a81b03199092161790600160a01b90849081111561105257611052613e08565b0217905550610100820151600782019061106c9082614682565b5050336000908152600a602090815260408220805460018101825590835291200190506110998782614682565b50336001600160a01b03167f36fddeca3b99d4655e76ff3eb699cbff3f16f4a5123824cdaa040880ab7e78ef8787876040516110d793929190614741565b60405180910390a2505050505050565b600b602052816000526040600020818154811061110357600080fd5b9060005260206000200160009150915050805461111f906144dd565b80601f016020809104026020016040519081016040528092919081815260200182805461114b906144dd565b80156111985780601f1061116d57610100808354040283529160200191611198565b820191906000526020600020905b81548152906001019060200180831161117b57829003601f168201915b505050505081565b6000828152602081905260409020600101546111bb8161376a565b6111c58383613777565b50505050565b6000805160206149938339815191526111e38161376a565b6001846040516111f39190614517565b9081526040519081900360200190206003015460ff600160a01b90910416156112575760405162461bcd60e51b815260206004820152601660248201527550726f6475637420616c72656164792065786973747360501b6044820152606401610b18565b6040518060a00160405280858152602001848152602001838152602001336001600160a01b031681526020016001151581525060018560405161129a9190614517565b908152604051908190036020019020815181906112b79082614682565b50602082015160018201906112cc9082614682565b50604082015160028201906112e19082614682565b506060820151600390910180546080909301511515600160a01b026001600160a81b03199093166001600160a01b039092169190911791909117905560405133907fdc62d3d2ce3bcf04d8c0c001c3d1b9b793bc83b6a8d7de0cb99d77b4504cb5af906113519087908790614777565b60405180910390a250505050565b6001600160a01b03811633146113885760405163334bd91960e11b815260040160405180910390fd5b6113928282613809565b505050565b7f20b5f7ac978e5d6199de06401411960dfa81d2f762655f6206bdc61d46fc19e66113c18161376a565b60006002846040516113d39190614517565b9081526020016040518091039020905080600401546000036114295760405162461bcd60e51b815260206004820152600f60248201526e10985d18da081b9bdd08199bdd5b99608a1b6044820152606401610b18565b60068101805460ff60a01b1916600560a01b17905560405133907fff8a6116073f6be10b016dbfa0e50666b02837ed7166ec96c087885d4e1fdcc7906113519087908790614777565b600061147d8161376a565b61139260008051602061499383398151915283613777565b60006003846040516114a79190614517565b90815260405190819003602001902060048101549091506001600160a01b031633146114e55760405162461bcd60e51b8152600401610b1890614533565b60048101805460ff60a01b1916600160a11b179055600581016115088482614682565b50336001600160a01b0316600080516020614973833981519152856002856040516113519392919061456a565b805160208183018101805160038252928201919093012091528054819061155b906144dd565b80601f0160208091040260200160405190810160405280929190818152602001828054611587906144dd565b80156115d45780601f106115a9576101008083540402835291602001916115d4565b820191906000526020600020905b8154815290600101906020018083116115b757829003601f168201915b5050505060028301546003840154600485015460058601805495966001600160a01b0394851696938516955093821693600160a01b90920460ff1692611619906144dd565b80601f0160208091040260200160405190810160405280929190818152602001828054611645906144dd565b80156116925780601f1061166757610100808354040283529160200191611692565b820191906000526020600020905b81548152906001019060200180831161167557829003601f168201915b5050505050908060060154908060070180546116ad906144dd565b80601f01602080910402602001604051908101604052809291908181526020018280546116d9906144dd565b80156117265780601f106116fb57610100808354040283529160200191611726565b820191906000526020600020905b81548152906001019060200180831161170957829003601f168201915b50505050509080600801805461173b906144dd565b80601f0160208091040260200160405190810160405280929190818152602001828054611767906144dd565b80156117b45780601f10611789576101008083540402835291602001916117b4565b820191906000526020600020905b81548152906001019060200180831161179757829003601f168201915b5050505050908060090180546117c9906144dd565b80601f01602080910402602001604051908101604052809291908181526020018280546117f5906144dd565b80156118425780601f1061181757610100808354040283529160200191611842565b820191906000526020600020905b81548152906001019060200180831161182557829003601f168201915b505050505090508a565b60038860405161185c9190614517565b9081526020016040518091039020600601546000146118af5760405162461bcd60e51b815260206004820152600f60248201526e536869706d656e742065786973747360881b6044820152606401610b18565b60005b8751811015611a4c57336001600160a01b031660028983815181106118d9576118d96145a6565b60200260200101516040516118ee9190614517565b908152604051908190036020019020600601546001600160a01b0316146119495760405162461bcd60e51b815260206004820152600f60248201526e2737ba103130ba31b41037bbb732b960891b6044820152606401610b18565b6005600289838151811061195f5761195f6145a6565b60200260200101516040516119749190614517565b908152602001604051809103902060060160149054906101000a900460ff1660068111156119a4576119a4613e08565b036119e25760405162461bcd60e51b815260206004820152600e60248201526d10985d18da081c9958d85b1b195960921b6044820152606401610b18565b600160028983815181106119f8576119f86145a6565b6020026020010151604051611a0d9190614517565b908152602001604051809103902060060160146101000a81548160ff02191690836006811115611a3f57611a3f613e08565b02179055506001016118b2565b5060408051610160810182528981526020810189905233918101919091526001600160a01b0387811660608301528616608082015260a08101600081526020016040518060400160405280601081526020016f0526561647920666f72207069636b75760841b815250815260200142815260200184815260200183815260200182815250600389604051611ae09190614517565b90815260405190819003602001902081518190611afd9082614682565b506020828101518051611b1692600185019201906138b1565b5060408201516002820180546001600160a01b03199081166001600160a01b039384161790915560608401516003840180548316918416919091179055608084015160048401805492831691909316908117835560a085015192916001600160a81b03191617600160a01b836005811115611b9357611b93613e08565b021790555060c08201516005820190611bac9082614682565b5060e082015160068201556101008201516007820190611bcc9082614682565b506101208201516008820190611be29082614682565b506101408201516009820190611bf89082614682565b5050336000908152600b60209081526040822080546001810182559083529120019050611c258982614682565b506001600160a01b0386166000908152600b6020908152604082208054600181018255908352912001611c588982614682565b506001600160a01b0385163314611c9d576001600160a01b0385166000908152600b6020908152604082208054600181018255908352912001611c9b8982614682565b505b846001600160a01b0316866001600160a01b0316336001600160a01b03167ffbc79e9fbfeed45ebf1ad0e33f5af3fdd815b6f82afa42c0964811e04c6d12478b604051611cea9190613d18565b60405180910390a4336001600160a01b031660008051602061497383398151915289600087604051611d1e9392919061456a565b60405180910390a25050505050505050565b600080516020614993833981519152611d488161376a565b6001600160a01b038616611d905760405162461bcd60e51b815260206004820152600f60248201526e496e76616c6964206164647265737360881b6044820152606401610b18565b3360009081526006602090815260408083206001600160a01b038a16845290915290205460ff1615611df75760405162461bcd60e51b815260206004820152601060248201526f105b1c9958591e48185c1c1c9bdd995960821b6044820152606401610b18565b604051806101000160405280876001600160a01b03168152602001868152602001858152602001848152602001831515815260200160016003811115611e3f57611e3f613e08565b815233602080830191909152426040928301526001600160a01b0389811660009081526004835292909220835181546001600160a01b03191693169290921782558201516001820190611e929082614682565b5060408201516002820190611ea79082614682565b5060608201516003820190611ebc9082614682565b50608082015160048201805491151560ff1983168117825560a08501519261ff001990911661ffff1990911617610100836003811115611efe57611efe613e08565b021790555060c082015160048201805462010000600160b01b031916620100006001600160a01b039384160217905560e090920151600591820155336000818152602092835260408082208054600181810183559184528584200180546001600160a01b031916968d1696871790559282526006845280822094825293909252919020805460ff19169091179055611fa460008051602061495383398151915287613777565b5060405133906001600160a01b038816907f73744a5ceffb71a81065f3223357b1813b4ebaa2583dba5790cc49eb3967ba9c90600090a3505050505050565b8051602081830181018051600282529282019190930120915280548190612009906144dd565b80601f0160208091040260200160405190810160405280929190818152602001828054612035906144dd565b80156120825780601f1061205757610100808354040283529160200191612082565b820191906000526020600020905b81548152906001019060200180831161206557829003601f168201915b505050505090806001018054612097906144dd565b80601f01602080910402602001604051908101604052809291908181526020018280546120c3906144dd565b80156121105780601f106120e557610100808354040283529160200191612110565b820191906000526020600020905b8154815290600101906020018083116120f357829003601f168201915b505050505090806002018054612125906144dd565b80601f0160208091040260200160405190810160405280929190818152602001828054612151906144dd565b801561219e5780601f106121735761010080835404028352916020019161219e565b820191906000526020600020905b81548152906001019060200180831161218157829003601f168201915b5050505060038301546004840154600585015460068601546007870180549697949693955091936001600160a01b03821693600160a01b90920460ff169290916121e7906144dd565b80601f0160208091040260200160405190810160405280929190818152602001828054612213906144dd565b80156122605780601f1061223557610100808354040283529160200191612260565b820191906000526020600020905b81548152906001019060200180831161224357829003601f168201915b5050505050905089565b7f2a5f906c256a5d799494fcd066e1f6c077689de1cdb65052a1624de4bace99bf6122948161376a565b60006002846040516122a69190614517565b90815260405190819003602001902060068101549091506001600160a01b031633146123005760405162461bcd60e51b81526020600482015260096024820152682737ba1037bbb732b960b91b6044820152606401610b18565b82816003015410156123475760405162461bcd60e51b815260206004820152601060248201526f496e73756666696369656e742071747960801b6044820152606401610b18565b8281600301600082825461235b91906147a5565b909155505060038101546000036123825760068101805460ff60a01b1916600160a21b1790555b336001600160a01b03167f132318fab862ee80e58d6d1b60ba92da8fba3557225ee5611844cadba65133ff85856040516113519291906147c6565b60006123c88161376a565b6113927ffbd454f36a7e1a388bd6fc3ab10d434aa4578f811acbbcf33afb1c697486313c83613777565b6000918252602082815260408084206001600160a01b0393909316845291905290205460ff1690565b600060038360405161242d9190614517565b90815260405190819003602001902060038101549091506001600160a01b031633146124935760405162461bcd60e51b81526020600482015260156024820152742737ba1030b9b9b4b3b732b2103932b1b2b4bb32b960591b6044820152606401610b18565b60036004820154600160a01b900460ff1660058111156124b5576124b5613e08565b146124f65760405162461bcd60e51b8152602060048201526011602482015270139bdd0819195b1a5d995c9959081e595d607a1b6044820152606401610b18565b60048101805460ff60a01b1916600160a21b17905560005b60018201548110156127475760006002836001018381548110612533576125336145a6565b9060005260206000200160405161254a91906145bc565b908152602001604051809103902060060160009054906101000a90046001600160a01b03169050336002846001018481548110612589576125896145a6565b906000526020600020016040516125a091906145bc565b908152602001604051809103902060060160006101000a8154816001600160a01b0302191690836001600160a01b03160217905550600360028460010184815481106125ee576125ee6145a6565b9060005260206000200160405161260591906145bc565b908152602001604051809103902060060160146101000a81548160ff0219169083600681111561263757612637613e08565b0217905550836002846001018481548110612654576126546145a6565b9060005260206000200160405161266b91906145bc565b908152602001604051809103902060070190816126889190614682565b50336000908152600a60205260409020600184018054849081106126ae576126ae6145a6565b6000918252602080832084546001810186559484529220909201916126d49101826147e8565b50336001600160a01b0316816001600160a01b03167feaf22fc804144c7c78e650d3a57a301746b101283f0e42c63c17795284f2ce4b85600101858154811061271f5761271f6145a6565b9060005260206000200160405161273691906148c2565b60405180910390a35060010161250e565b50336001600160a01b031660008051602061497383398151915284600485604051610bbb9392919061456a565b60076020528160005260406000208181548110610e3357600080fd5b600a602052816000526040600020818154811061110357600080fd5b7ffbd454f36a7e1a388bd6fc3ab10d434aa4578f811acbbcf33afb1c697486313c6127d68161376a565b6001600160a01b038088166000908152600660209081526040808320938a168352929052205460ff161561283f5760405162461bcd60e51b815260206004820152601060248201526f105b1c9958591e48185c1c1c9bdd995960821b6044820152606401610b18565b6001600160a01b038088166000908152600860209081526040808320938a168352929052205460ff16156128a95760405162461bcd60e51b8152602060048201526011602482015270105b1c9958591e481c995c5d595cdd1959607a1b6044820152606401610b18565b604051806101000160405280876001600160a01b031681526020018681526020018581526020018481526020018315158152602001600060038111156128f1576128f1613e08565b815260006020808301829052426040938401526001600160a01b038a811683526004825292909120835181546001600160a01b031916931692909217825582015160018201906129419082614682565b50604082015160028201906129569082614682565b506060820151600382019061296b9082614682565b50608082015160048201805491151560ff1983168117825560a08501519261ff001990911661ffff19909116176101008360038111156129ad576129ad613e08565b021790555060c082015160048201805462010000600160b01b031916620100006001600160a01b039384160217905560e09092015160059091015587811660008181526007602090815260408083208054600181810183559185528385200180546001600160a01b0319908116978e16978817909155858552600884528285208786528452828520805460ff191690921790915584845260098352818420868552909252808320805433931683179055519293909290917f9719fc92bffb9467a0c81cc45174ec77dcc1291fc0c5aaf488993d0ef2d9504691a450505050505050565b600082815260208190526040902060010154612aab8161376a565b6111c58383613809565b600460205260009081526040902080546001820180546001600160a01b039092169291612ae1906144dd565b80601f0160208091040260200160405190810160405280929190818152602001828054612b0d906144dd565b8015612b5a5780601f10612b2f57610100808354040283529160200191612b5a565b820191906000526020600020905b815481529060010190602001808311612b3d57829003601f168201915b505050505090806002018054612b6f906144dd565b80601f0160208091040260200160405190810160405280929190818152602001828054612b9b906144dd565b8015612be85780601f10612bbd57610100808354040283529160200191612be8565b820191906000526020600020905b815481529060010190602001808311612bcb57829003601f168201915b505050505090806003018054612bfd906144dd565b80601f0160208091040260200160405190810160405280929190818152602001828054612c29906144dd565b8015612c765780601f10612c4b57610100808354040283529160200191612c76565b820191906000526020600020905b815481529060010190602001808311612c5957829003601f168201915b505050506004830154600590930154919260ff8082169361010083049091169250620100009091046001600160a01b03169088565b600387604051612cbb9190614517565b908152602001604051809103902060060154600014612d0e5760405162461bcd60e51b815260206004820152600f60248201526e536869706d656e742065786973747360881b6044820152606401610b18565b60005b8651811015612ef257336001600160a01b03166002888381518110612d3857612d386145a6565b6020026020010151604051612d4d9190614517565b908152604051908190036020019020600601546001600160a01b031614612da85760405162461bcd60e51b815260206004820152600f60248201526e2737ba103130ba31b41037bbb732b960891b6044820152606401610b18565b60056002888381518110612dbe57612dbe6145a6565b6020026020010151604051612dd39190614517565b908152602001604051809103902060060160149054906101000a900460ff166006811115612e0357612e03613e08565b03612e415760405162461bcd60e51b815260206004820152600e60248201526d10985d18da081c9958d85b1b195960921b6044820152606401610b18565b600280888381518110612e5657612e566145a6565b6020026020010151604051612e6b9190614517565b908152602001604051809103902060060160146101000a81548160ff02191690836006811115612e9d57612e9d613e08565b0217905550846002888381518110612eb757612eb76145a6565b6020026020010151604051612ecc9190614517565b90815260200160405180910390206007019081612ee99190614682565b50600101612d11565b50604080516101608101825288815260208101889052339181018290526001600160a01b0387166060820152608081019190915260a08101600381526020016040518060400160405280600e81526020016d14d95b198b59195b1a5d995c995960921b815250815260200142815260200184815260200183815260200182815250600388604051612f839190614517565b90815260405190819003602001902081518190612fa09082614682565b506020828101518051612fb992600185019201906138b1565b5060408201516002820180546001600160a01b03199081166001600160a01b039384161790915560608401516003840180548316918416919091179055608084015160048401805492831691909316908117835560a085015192916001600160a81b03191617600160a01b83600581111561303657613036613e08565b021790555060c0820151600582019061304f9082614682565b5060e08201516006820155610100820151600782019061306f9082614682565b5061012082015160088201906130859082614682565b50610140820151600982019061309b9082614682565b5050336000908152600b602090815260408220805460018101825590835291200190506130c88882614682565b506001600160a01b0385166000908152600b60209081526040822080546001810182559083529120016130fb8882614682565b50336001600160a01b0316856001600160a01b0316336001600160a01b03167ffbc79e9fbfeed45ebf1ad0e33f5af3fdd815b6f82afa42c0964811e04c6d12478a6040516131499190613d18565b60405180910390a4336001600160a01b03166000805160206149738339815191528860038760405161317d9392919061456a565b60405180910390a250505050505050565b60006131998161376a565b61139260008051602061495383398151915283613777565b60006002846040516131c39190614517565b90815260405190819003602001902060068101549091506001600160a01b0316331461321d5760405162461bcd60e51b81526020600482015260096024820152682737ba1037bbb732b960b91b6044820152606401610b18565b81816003015410156132645760405162461bcd60e51b815260206004820152601060248201526f496e73756666696369656e742071747960801b6044820152606401610b18565b6002836040516132749190614517565b9081526020016040518091039020600401546000146132c85760405162461bcd60e51b815260206004820152601060248201526f4e65772062617463682065786973747360801b6044820152606401610b18565b818160030160008282546132dc91906147a5565b92505081905550604051806101200160405280848152602001826001018054613304906144dd565b80601f0160208091040260200160405190810160405280929190818152602001828054613330906144dd565b801561337d5780601f106133525761010080835404028352916020019161337d565b820191906000526020600020905b81548152906001019060200180831161336057829003601f168201915b505050505081526020018581526020018381526020018260040154815260200182600501548152602001336001600160a01b031681526020018260060160149054906101000a900460ff1660068111156133d9576133d9613e08565b81526020018260070180546133ed906144dd565b80601f0160208091040260200160405190810160405280929190818152602001828054613419906144dd565b80156134665780601f1061343b57610100808354040283529160200191613466565b820191906000526020600020905b81548152906001019060200180831161344957829003601f168201915b505050505081525060028460405161347e9190614517565b9081526040519081900360200190208151819061349b9082614682565b50602082015160018201906134b09082614682565b50604082015160028201906134c59082614682565b50606082015160038201556080820151600482015560a0820151600582015560c0820151600680830180546001600160a01b039093166001600160a01b031984168117825560e08601519391926001600160a81b03199092161790600160a01b90849081111561353757613537613e08565b021790555061010082015160078201906135519082614682565b5050336000908152600a6020908152604082208054600181018255908352912001905061357e8482614682565b507fbddd4418fab8dd14357083f27a6d964d82075d4b5394909faa807d04ea2e78308484846040516135b293929190614741565b60405180910390a150505050565b60006135cb8161376a565b6113927f2a5f906c256a5d799494fcd066e1f6c077689de1cdb65052a1624de4bace99bf83613777565b60008051602061499383398151915261360d8161376a565b3360009081526008602090815260408083206001600160a01b038616845290915290205460ff166136755760405162461bcd60e51b8152602060048201526012602482015271139bc81c195b991a5b99c81c995c5d595cdd60721b6044820152606401610b18565b6001600160a01b038216600081815260046020818152604080842090920180546201000033908102610100600160b01b03199092169190911761010017909155808452600582528284208054600181810183559186528386200180546001600160a01b03191687179055818552600683528385208686528352838520805460ff1990811690921790559084526008825282842094845293905290208054909116905561372f60008051602061495383398151915283613777565b5060405133906001600160a01b038416907ff527445bb1f56b862e5957a77a6f4c071d6d83323320134102be2875d405d7c190600090a35050565b6137748133613874565b50565b600061378383836123f2565b613801576000838152602081815260408083206001600160a01b03861684529091529020805460ff191660011790556137b93390565b6001600160a01b0316826001600160a01b0316847f2f8788117e7eff1d82e926ec794901d17c78024a50270940304540a733656f0d60405160405180910390a45060016109c8565b5060006109c8565b600061381583836123f2565b15613801576000838152602081815260408083206001600160a01b0386168085529252808320805460ff1916905551339286917ff6391f5c32d9c69d2a47ea670b442974b53935d1edc7fd64eb21e047a839171b9190a45060016109c8565b61387e82826123f2565b6138ad5760405163e2517d3f60e01b81526001600160a01b038216600482015260248101839052604401610b18565b5050565b8280548282559060005260206000209081019282156138f7579160200282015b828111156138f757825182906138e79082614682565b50916020019190600101906138d1565b50613903929150613907565b5090565b8082111561390357600061391b8282613924565b50600101613907565b508054613930906144dd565b6000825580601f10613940575050565b601f01602090049060005260206000209081019061377491905b80821115613903576000815560010161395a565b634e487b7160e01b600052604160045260246000fd5b604051601f8201601f191681016001600160401b03811182821017156139ac576139ac61396e565b604052919050565b600082601f8301126139c557600080fd5b81356001600160401b038111156139de576139de61396e565b6139f1601f8201601f1916602001613984565b818152846020838601011115613a0657600080fd5b816020850160208301376000918101602001919091529392505050565b600060208284031215613a3557600080fd5b81356001600160401b03811115613a4b57600080fd5b613a57848285016139b4565b949350505050565b60005b83811015613a7a578181015183820152602001613a62565b50506000910152565b60008151808452613a9b816020860160208601613a5f565b601f01601f19169290920160200192915050565b60a081526000613ac260a0830188613a83565b8281036020840152613ad48188613a83565b90508281036040840152613ae88187613a83565b6001600160a01b0395909516606084015250509015156080909101529392505050565b600060208284031215613b1d57600080fd5b81356001600160e01b031981168114613b3557600080fd5b9392505050565b600060208083016020845280855180835260408601915060408160051b87010192506020870160005b82811015613b9357603f19888603018452613b81858351613a83565b94509285019290850190600101613b65565b5092979650505050505050565b60008060408385031215613bb357600080fd5b82356001600160401b0380821115613bca57600080fd5b613bd6868387016139b4565b93506020850135915080821115613bec57600080fd5b50613bf9858286016139b4565b9150509250929050565b80356001600160a01b0381168114613c1a57600080fd5b919050565b600060208284031215613c3157600080fd5b613b3582613c03565b60008060408385031215613c4d57600080fd5b613c5683613c03565b946020939093013593505050565b600060208284031215613c7657600080fd5b5035919050565b600080600080600060a08688031215613c9557600080fd5b85356001600160401b0380821115613cac57600080fd5b613cb889838a016139b4565b96506020880135915080821115613cce57600080fd5b613cda89838a016139b4565b955060408801359450606088013593506080880135915080821115613cfe57600080fd5b50613d0b888289016139b4565b9150509295509295909350565b602081526000613b356020830184613a83565b60008060408385031215613d3e57600080fd5b82359150613d4e60208401613c03565b90509250929050565b600080600060608486031215613d6c57600080fd5b83356001600160401b0380821115613d8357600080fd5b613d8f878388016139b4565b94506020860135915080821115613da557600080fd5b613db1878388016139b4565b93506040860135915080821115613dc757600080fd5b50613dd4868287016139b4565b9150509250925092565b60008060408385031215613df157600080fd5b613dfa83613c03565b9150613d4e60208401613c03565b634e487b7160e01b600052602160045260246000fd5b60068110613e2e57613e2e613e08565b9052565b6000610140808352613e468184018e613a83565b6001600160a01b038d811660208601528c811660408601528b1660608501529050613e74608084018a613e1e565b82810360a0840152613e868189613a83565b90508660c084015282810360e0840152613ea08187613a83565b9050828103610100840152613eb58186613a83565b9050828103610120840152613eca8185613a83565b9d9c50505050505050505050505050565b600082601f830112613eec57600080fd5b813560206001600160401b0380831115613f0857613f0861396e565b8260051b613f17838201613984565b9384528581018301938381019088861115613f3157600080fd5b84880192505b85831015613f6d57823584811115613f4f5760008081fd5b613f5d8a87838c01016139b4565b8352509184019190840190613f37565b98975050505050505050565b600080600080600080600080610100898b031215613f9657600080fd5b88356001600160401b0380821115613fad57600080fd5b613fb98c838d016139b4565b995060208b0135915080821115613fcf57600080fd5b613fdb8c838d01613edb565b9850613fe960408c01613c03565b9750613ff760608c01613c03565b965060808b013591508082111561400d57600080fd5b6140198c838d016139b4565b955060a08b013591508082111561402f57600080fd5b61403b8c838d016139b4565b945060c08b013591508082111561405157600080fd5b61405d8c838d016139b4565b935060e08b013591508082111561407357600080fd5b506140808b828c016139b4565b9150509295985092959890939650565b80358015158114613c1a57600080fd5b600080600080600060a086880312156140b857600080fd5b6140c186613c03565b945060208601356001600160401b03808211156140dd57600080fd5b6140e989838a016139b4565b955060408801359150808211156140ff57600080fd5b61410b89838a016139b4565b9450606088013591508082111561412157600080fd5b5061412e888289016139b4565b92505061413d60808701614090565b90509295509295909350565b600061012080835261415d8184018d613a83565b90508281036020840152614171818c613a83565b90508281036040840152614185818b613a83565b606084018a90526080840189905260a084018890526001600160a01b03871660c08501529050600785106141bb576141bb613e08565b8460e08401528281036101008401526141d48185613a83565b9c9b505050505050505050505050565b600080604083850312156141f757600080fd5b82356001600160401b0381111561420d57600080fd5b614219858286016139b4565b95602094909401359450505050565b60008060008060008060c0878903121561424157600080fd5b61424a87613c03565b955061425860208801613c03565b945060408701356001600160401b038082111561427457600080fd5b6142808a838b016139b4565b9550606089013591508082111561429657600080fd5b6142a28a838b016139b4565b945060808901359150808211156142b857600080fd5b506142c589828a016139b4565b9250506142d460a08801614090565b90509295509295509295565b6001600160a01b038981168252610100602083018190526000916143068483018c613a83565b9150838203604085015261431a828b613a83565b9150838203606085015261432e828a613a83565b925087151560808501526004871061434857614348613e08565b8660a085015280861660c085015250508260e08301529998505050505050505050565b600080600080600080600060e0888a03121561438657600080fd5b87356001600160401b038082111561439d57600080fd5b6143a98b838c016139b4565b985060208a01359150808211156143bf57600080fd5b6143cb8b838c01613edb565b97506143d960408b01613c03565b965060608a01359150808211156143ef57600080fd5b6143fb8b838c016139b4565b955060808a013591508082111561441157600080fd5b61441d8b838c016139b4565b945060a08a013591508082111561443357600080fd5b61443f8b838c016139b4565b935060c08a013591508082111561445557600080fd5b506144628a828b016139b4565b91505092959891949750929550565b60008060006060848603121561448657600080fd5b83356001600160401b038082111561449d57600080fd5b6144a9878388016139b4565b945060208601359150808211156144bf57600080fd5b506144cc868287016139b4565b925050604084013590509250925092565b600181811c908216806144f157607f821691505b60208210810361451157634e487b7160e01b600052602260045260246000fd5b50919050565b60008251614529818460208701613a5f565b9190910192915050565b60208082526018908201527f4e6f742061737369676e6564207472616e73706f727465720000000000000000604082015260600190565b60608152600061457d6060830186613a83565b61458a6020840186613e1e565b828103604084015261459c8185613a83565b9695505050505050565b634e487b7160e01b600052603260045260246000fd5b60008083546145ca816144dd565b600182811680156145e257600181146145f757614626565b60ff1984168752821515830287019450614626565b8760005260208060002060005b8581101561461d5781548a820152908401908201614604565b50505082870194505b50929695505050505050565b601f821115611392576000816000526020600020601f850160051c8101602086101561465b5750805b601f850160051c820191505b8181101561467a57828155600101614667565b505050505050565b81516001600160401b0381111561469b5761469b61396e565b6146af816146a984546144dd565b84614632565b602080601f8311600181146146e457600084156146cc5750858301515b600019600386901b1c1916600185901b17855561467a565b600085815260208120601f198616915b82811015614713578886015182559484019460019091019084016146f4565b50858210156147315787850151600019600388901b60f8161c191681555b5050505050600190811b01905550565b6060815260006147546060830186613a83565b82810360208401526147668186613a83565b915050826040830152949350505050565b60408152600061478a6040830185613a83565b828103602084015261479c8185613a83565b95945050505050565b818103818111156109c857634e487b7160e01b600052601160045260246000fd5b6040815260006147d96040830185613a83565b90508260208301529392505050565b8181036147f3575050565b6147fd82546144dd565b6001600160401b038111156148145761481461396e565b614822816146a984546144dd565b6000601f821160018114614856576000831561483e5750848201545b600019600385901b1c1916600184901b1784556148bb565b600085815260209020601f19841690600086815260209020845b838110156148905782860154825560019586019590910190602001614870565b50858310156148ae5781850154600019600388901b60f8161c191681555b50505060018360011b0184555b5050505050565b60006020808352600084546148d6816144dd565b80602087015260406001808416600081146148f8576001811461491457614944565b60ff19851660408a0152604084151560051b8a01019550614944565b89600052602060002060005b8581101561493b5781548b8201860152908301908801614920565b8a016040019650505b50939897505050505050505056feded9b5e0e0e3a2b3f09a0bc36ec64b9bf7a7c2319f3c4d9cff5ce48714257b212d48369007162181d22d4acb981c30f686cbeac102dfe54513c4d86a6d1ce011eefb95e842a3287179d933b4460be539a1d5af11aa8b325bb45c5c8dc92de4eda2646970667358221220ae38f8d4508f4caaac19761ea3a300c7c9202152a6d6c9ffc7b4bda34fceb58164736f6c63430008180033",
  "linkReferences": {},
  "deployedLinkReferences": {}
}