{
  "_format": "hh-sol-artifact-1",
  "contractName": "VerifyChain",
  "sourceName": "contracts/VerifyChain.sol",
  "abi": [
    {
      "inputs": [],
      "stateMutability": "nonpayable",
      "type": "constructor"
    },
    {
      "inputs": [],
      "name": "AccessControlBadConfirmation",
      "type": "error"
    },
    {
      "inputs": [
        {
          "internalType": "address",
          "name": "account",
          "type": "address"
        },
        {
          "internalType": "bytes32",
          "name": "neededRole",
          "type": "bytes32"
        }
      ],
      "name": "AccessControlUnauthorizedAccount",
      "type": "error"
    },
    {
      "anonymous": false,
      "inputs": [
        {
          "indexed": false,
          "internalType": "string",
          "name": "batchId",
          "type": "string"
        },
        {
          "indexed": false,
          "internalType": "string",
          "name": "productId",
          "type": "string"
        },
        {
          "indexed": true,
          "internalType": "address",
          "name": "owner",
          "type": "address"
        }
      ],
      "name": "BatchCreated",
      "type": "event"
    },
    {
      "anonymous": false,
      "inputs": [
        {
          "indexed": false,
          "internalType": "string",
          "name": "batchId",
          "type": "string"
        },
        {
          "indexed": false,
          "internalType": "string",
          "name": "reason",
          "type": "string"
        },
        {
          "indexed": true,
          "internalType": "address",
          "name": "regulator",
          "type": "address"
        }
      ],
      "name": "BatchRecall",
      "type": "event"
    },
    {
      "anonymous": false,
      "inputs": [
        {
          "indexed": false,
          "internalType": "string",
          "name": "batchId",
          "type": "string"
        },
        {
          "indexed": true,
          "internalType": "address",
          "name": "from",
          "type": "address"
        },
        {
          "indexed": true,
          "internalType": "address",
          "name": "to",
          "type": "address"
        },
        {
          "indexed": false,
          "internalType": "enum VerifyChain.BatchStatus",
          "name": "newStatus",
          "type": "uint8"
        }
      ],
      "name": "BatchTransfer",
      "type": "event"
    },
    {
      "anonymous": false,
      "inputs": [
        {
          "indexed": false,
          "internalType": "string",
          "name": "productId",
          "type": "string"
        },
        {
          "indexed": false,
          "internalType": "string",
          "name": "name",
          "type": "string"
        },
        {
          "indexed": false,
          "internalType": "string",
          "name": "category",
          "type": "string"
        },
        {
          "indexed": true,
          "internalType": "address",
          "name": "manufacturer",
          "type": "address"
        }
      ],
      "name": "ProductRegistered",
      "type": "event"
    },
    {
      "anonymous": false,
      "inputs": [
        {
          "indexed": true,
          "internalType": "bytes32",
          "name": "role",
          "type": "bytes32"
        },
        {
          "indexed": true,
          "internalType": "bytes32",
          "name": "previousAdminRole",
          "type": "bytes32"
        },
        {
          "indexed": true,
          "internalType": "bytes32",
          "name": "newAdminRole",
          "type": "bytes32"
        }
      ],
      "name": "RoleAdminChanged",
      "type": "event"
    },
    {
      "anonymous": false,
      "inputs": [
        {
          "indexed": true,
          "internalType": "bytes32",
          "name": "role",
          "type": "bytes32"
        },
        {
          "indexed": true,
          "internalType": "address",
          "name": "account",
          "type": "address"
        },
        {
          "indexed": true,
          "internalType": "address",
          "name": "sender",
          "type": "address"
        }
      ],
      "name": "RoleGranted",
      "type": "event"
    },
    {
      "anonymous": false,
      "inputs": [
        {
          "indexed": true,
          "internalType": "bytes32",
          "name": "role",
          "type": "bytes32"
        },
        {
          "indexed": true,
          "internalType": "address",
          "name": "account",
          "type": "address"
        },
        {
          "indexed": true,
          "internalType": "address",
          "name": "sender",
          "type": "address"
        }
      ],
      "name": "RoleRevoked",
      "type": "event"
    },
    {
      "inputs": [],
      "name": "DEFAULT_ADMIN_ROLE",
      "outputs": [
        {
          "internalType": "bytes32",
          "name": "",
          "type": "bytes32"
        }
      ],
      "stateMutability": "view",
      "type": "function"
    },
    {
      "inputs": [],
      "name": "DISTRIBUTOR_ROLE",
      "outputs": [
        {
          "internalType": "bytes32",
          "name": "",
          "type": "bytes32"
        }
      ],
      "stateMutability": "view",
      "type": "function"
    },
    {
      "inputs": [],
      "name": "LOGISTICS_ROLE",
      "outputs": [
        {
          "internalType": "bytes32",
          "name": "",
          "type": "bytes32"
        }
      ],
      "stateMutability": "view",
      "type": "function"
    },
    {
      "inputs": [],
      "name": "MANUFACTURER_ROLE",
      "outputs": [
        {
          "internalType": "bytes32",
          "name": "",
          "type": "bytes32"
        }
      ],
      "stateMutability": "view",
      "type": "function"
    },
    {
      "inputs": [],
      "name": "REGULATOR_ROLE",
      "outputs": [
        {
          "internalType": "bytes32",
          "name": "",
          "type": "bytes32"
        }
      ],
      "stateMutability": "view",
      "type": "function"
    },
    {
      "inputs": [],
      "name": "RETAILER_ROLE",
      "outputs": [
        {
          "internalType": "bytes32",
          "name": "",
          "type": "bytes32"
        }
      ],
      "stateMutability": "view",
      "type": "function"
    },
    {
      "inputs": [
        {
          "internalType": "uint256",
          "name": "",
          "type": "uint256"
        }
      ],
      "name": "allBatchIds",
      "outputs": [
        {
          "internalType": "string",
          "name": "",
          "type": "string"
        }
      ],
      "stateMutability": "view",
      "type": "function"
    },
    {
      "inputs": [
        {
          "internalType": "uint256",
          "name": "",
          "type": "uint256"
        }
      ],
      "name": "allProductIds",
      "outputs": [
        {
          "internalType": "string",
          "name": "",
          "type": "string"
        }
      ],
      "stateMutability": "view",
      "type": "function"
    },
    {
      "inputs": [
        {
          "internalType": "string",
          "name": "",
          "type": "string"
        },
        {
          "internalType": "uint256",
          "name": "",
          "type": "uint256"
        }
      ],
      "name": "batchHistory",
      "outputs": [
        {
          "internalType": "address",
          "name": "actor",
          "type": "address"
        },
        {
          "internalType": "string",
          "name": "action",
          "type": "string"
        },
        {
          "internalType": "uint256",
          "name": "timestamp",
          "type": "uint256"
        },
        {
          "internalType": "string",
          "name": "location",
          "type": "string"
        },
        {
          "internalType": "string",
          "name": "details",
          "type": "string"
        }
      ],
      "stateMutability": "view",
      "type": "function"
    },
    {
      "inputs": [
        {
          "internalType": "string",
          "name": "",
          "type": "string"
        }
      ],
      "name": "batches",
      "outputs": [
        {
          "internalType": "string",
          "name": "batchId",
          "type": "string"
        },
        {
          "internalType": "string",
          "name": "productId",
          "type": "string"
        },
        {
          "internalType": "uint256",
          "name": "quantity",
          "type": "uint256"
        },
        {
          "internalType": "uint256",
          "name": "mfgDate",
          "type": "uint256"
        },
        {
          "internalType": "uint256",
          "name": "expDate",
          "type": "uint256"
        },
        {
          "internalType": "address",
          "name": "currentOwner",
          "type": "address"
        },
        {
          "internalType": "enum VerifyChain.BatchStatus",
          "name": "status",
          "type": "uint8"
        },
        {
          "internalType": "string",
          "name": "currentHandlerLocation",
          "type": "string"
        },
        {
          "internalType": "bool",
          "name": "isRecalled",
          "type": "bool"
        }
      ],
      "stateMutability": "view",
      "type": "function"
    },
    {
      "inputs": [
        {
          "internalType": "string",
          "name": "_batchId",
          "type": "string"
        },
        {
          "internalType": "string",
          "name": "_productId",
          "type": "string"
        },
        {
          "internalType": "uint256",
          "name": "_quantity",
          "type": "uint256"
        },
        {
          "internalType": "uint256",
          "name": "_expDate",
          "type": "uint256"
        },
        {
          "internalType": "string",
          "name": "_location",
          "type": "string"
        }
      ],
      "name": "createBatch",
      "outputs": [],
      "stateMutability": "nonpayable",
      "type": "function"
    },
    {
      "inputs": [
        {
          "internalType": "string",
          "name": "_batchId",
          "type": "string"
        }
      ],
      "name": "getBatchHistory",
      "outputs": [
        {
          "components": [
            {
              "internalType": "address",
              "name": "actor",
              "type": "address"
            },
            {
              "internalType": "string",
              "name": "action",
              "type": "string"
            },
            {
              "internalType": "uint256",
              "name": "timestamp",
              "type": "uint256"
            },
            {
              "internalType": "string",
              "name": "location",
              "type": "string"
            },
            {
              "internalType": "string",
              "name": "details",
              "type": "string"
            }
          ],
          "internalType": "struct VerifyChain.TrackingEvent[]",
          "name": "",
          "type": "tuple[]"
        }
      ],
      "stateMutability": "view",
      "type": "function"
    },
    {
      "inputs": [
        {
          "internalType": "bytes32",
          "name": "role",
          "type": "bytes32"
        }
      ],
      "name": "getRoleAdmin",
      "outputs": [
        {
          "internalType": "bytes32",
          "name": "",
          "type": "bytes32"
        }
      ],
      "stateMutability": "view",
      "type": "function"
    },
    {
      "inputs": [
        {
          "internalType": "bytes32",
          "name": "role",
          "type": "bytes32"
        },
        {
          "internalType": "address",
          "name": "account",
          "type": "address"
        }
      ],
      "name": "grantRole",
      "outputs": [],
      "stateMutability": "nonpayable",
      "type": "function"
    },
    {
      "inputs": [
        {
          "internalType": "bytes32",
          "name": "role",
          "type": "bytes32"
        },
        {
          "internalType": "address",
          "name": "account",
          "type": "address"
        }
      ],
      "name": "hasRole",
      "outputs": [
        {
          "internalType": "bool",
          "name": "",
          "type": "bool"
        }
      ],
      "stateMutability": "view",
      "type": "function"
    },
    {
      "inputs": [
        {
          "internalType": "string",
          "name": "_batchId",
          "type": "string"
        },
        {
          "internalType": "string",
          "name": "_reason",
          "type": "string"
        }
      ],
      "name": "initiateRecall",
      "outputs": [],
      "stateMutability": "nonpayable",
      "type": "function"
    },
    {
      "inputs": [
        {
          "internalType": "address",
          "name": "",
          "type": "address"
        },
        {
          "internalType": "uint256",
          "name": "",
          "type": "uint256"
        }
      ],
      "name": "ownerToBatches",
      "outputs": [
        {
          "internalType": "string",
          "name": "",
          "type": "string"
        }
      ],
      "stateMutability": "view",
      "type": "function"
    },
    {
      "inputs": [
        {
          "internalType": "string",
          "name": "",
          "type": "string"
        }
      ],
      "name": "products",
      "outputs": [
        {
          "internalType": "string",
          "name": "productId",
          "type": "string"
        },
        {
          "internalType": "string",
          "name": "name",
          "type": "string"
        },
        {
          "internalType": "string",
          "name": "category",
          "type": "string"
        },
        {
          "internalType": "string",
          "name": "manufacturerName",
          "type": "string"
        },
        {
          "internalType": "address",
          "name": "manufacturerAddr",
          "type": "address"
        },
        {
          "internalType": "string",
          "name": "description",
          "type": "string"
        },
        {
          "internalType": "bool",
          "name": "active",
          "type": "bool"
        }
      ],
      "stateMutability": "view",
      "type": "function"
    },
    {
      "inputs": [
        {
          "internalType": "string",
          "name": "_productId",
          "type": "string"
        },
        {
          "internalType": "string",
          "name": "_name",
          "type": "string"
        },
        {
          "internalType": "string",
          "name": "_category",
          "type": "string"
        },
        {
          "internalType": "string",
          "name": "_desc",
          "type": "string"
        },
        {
          "internalType": "string",
          "name": "_manufacturerName",
          "type": "string"
        }
      ],
      "name": "registerProduct",
      "outputs": [],
      "stateMutability": "nonpayable",
      "type": "function"
    },
    {
      "inputs": [
        {
          "internalType": "bytes32",
          "name": "role",
          "type": "bytes32"
        },
        {
          "internalType": "address",
          "name": "callerConfirmation",
          "type": "address"
        }
      ],
      "name": "renounceRole",
      "outputs": [],
      "stateMutability": "nonpayable",
      "type": "function"
    },
    {
      "inputs": [
        {
          "internalType": "bytes32",
          "name": "role",
          "type": "bytes32"
        },
        {
          "internalType": "address",
          "name": "account",
          "type": "address"
        }
      ],
      "name": "revokeRole",
      "outputs": [],
      "stateMutability": "nonpayable",
      "type": "function"
    },
    {
      "inputs": [
        {
          "internalType": "string",
          "name": "_batchId",
          "type": "string"
        },
        {
          "internalType": "uint256",
          "name": "_qtySold",
          "type": "uint256"
        },
        {
          "internalType": "string",
          "name": "_location",
          "type": "string"
        }
      ],
      "name": "sellToConsumer",
      "outputs": [],
      "stateMutability": "nonpayable",
      "type": "function"
    },
    {
      "inputs": [
        {
          "internalType": "bytes4",
          "name": "interfaceId",
          "type": "bytes4"
        }
      ],
      "name": "supportsInterface",
      "outputs": [
        {
          "internalType": "bool",
          "name": "",
          "type": "bool"
        }
      ],
      "stateMutability": "view",
      "type": "function"
    },
    {
      "inputs": [
        {
          "internalType": "string",
          "name": "_batchId",
          "type": "string"
        },
        {
          "internalType": "address",
          "name": "_receiver",
          "type": "address"
        },
        {
          "internalType": "uint8",
          "name": "_newStatus",
          "type": "uint8"
        },
        {
          "internalType": "string",
          "name": "_location",
          "type": "string"
        },
        {
          "internalType": "string",
          "name": "_notes",
          "type": "string"
        }
      ],
      "name": "transferBatch",
      "outputs": [],
      "stateMutability": "nonpayable",
      "type": "function"
    }
  ],
  "bytecode": "0x60806040523480156200001157600080fd5b50620000276000801b336200012d60201b60201c565b506200005a7f20b5f7ac978e5d6199de06401411960dfa81d2f762655f6206bdc61d46fc19e6336200012d60201b60201c565b506200008d7feefb95e842a3287179d933b4460be539a1d5af11aa8b325bb45c5c8dc92de4ed336200012d60201b60201c565b50620000c07ffbd454f36a7e1a388bd6fc3ab10d434aa4578f811acbbcf33afb1c697486313c336200012d60201b60201c565b50620000f37fded9b5e0e0e3a2b3f09a0bc36ec64b9bf7a7c2319f3c4d9cff5ce48714257b21336200012d60201b60201c565b50620001267f2a5f906c256a5d799494fcd066e1f6c077689de1cdb65052a1624de4bace99bf336200012d60201b60201c565b50620002a2565b60006200014183836200023060201b60201c565b6200022557600160008085815260200190815260200160002060000160008473ffffffffffffffffffffffffffffffffffffffff1673ffffffffffffffffffffffffffffffffffffffff16815260200190815260200160002060006101000a81548160ff021916908315150217905550620001c16200029a60201b60201c565b73ffffffffffffffffffffffffffffffffffffffff168273ffffffffffffffffffffffffffffffffffffffff16847f2f8788117e7eff1d82e926ec794901d17c78024a50270940304540a733656f0d60405160405180910390a4600190506200022a565b600090505b92915050565b600080600084815260200190815260200160002060000160008373ffffffffffffffffffffffffffffffffffffffff1673ffffffffffffffffffffffffffffffffffffffff16815260200190815260200160002060009054906101000a900460ff16905092915050565b600033905090565b61382c80620002b26000396000f3fe608060405234801561001057600080fd5b50600436106101585760003560e01c8063965288b0116100c3578063c602d3fb1161007c578063c602d3fb1461040f578063cf30c7051461042d578063d547741f1461045d578063dde1bbcf14610479578063ede2ffcc146104a9578063f0bd87cc146104c557610158565b8063965288b0146103375780639b4bc92714610355578063a1d6ba6514610389578063a217fddf146103a5578063a252d8a7146103c3578063c49f9775146103f357610158565b806329300d591161011557806329300d591461025f5780632f2ff15d1461027b57806336568abe1461029757806337c29474146102b35780637ef1446a146102cf57806391d148541461030757610158565b80630186a4231461015d57806301ffc9a714610193578063144bf589146101c35780632115e7bf146101e1578063248a9ca3146101ff578063290b17ec1461022f575b600080fd5b6101776004803603810190610172919061254d565b6104e3565b60405161018a9796959493929190612671565b60405180910390f35b6101ad60048036038101906101a8919061275b565b610810565b6040516101ba9190612788565b60405180910390f35b6101cb61088a565b6040516101d891906127bc565b60405180910390f35b6101e96108ae565b6040516101f691906127bc565b60405180910390f35b61021960048036038101906102149190612803565b6108d2565b60405161022691906127bc565b60405180910390f35b61024960048036038101906102449190612866565b6108f1565b6040516102569190612893565b60405180910390f35b610279600480360381019061027491906128b5565b61099d565b005b610295600480360381019061029091906129b0565b610d93565b005b6102b160048036038101906102ac91906129b0565b610db5565b005b6102cd60048036038101906102c891906129f0565b610e30565b005b6102e960048036038101906102e4919061254d565b610fa9565b6040516102fe99989796959493929190612aee565b60405180910390f35b610321600480360381019061031c91906129b0565b6111df565b60405161032e9190612788565b60405180910390f35b61033f611249565b60405161034c91906127bc565b60405180910390f35b61036f600480360381019061036a9190612b90565b61126d565b604051610380959493929190612bec565b60405180910390f35b6103a3600480360381019061039e9190612c8d565b61148e565b005b6103ad61178b565b6040516103ba91906127bc565b60405180910390f35b6103dd60048036038101906103d8919061254d565b611792565b6040516103ea9190612f0a565b60405180910390f35b61040d60048036038101906104089190612f2c565b611a25565b005b610417611c8f565b60405161042491906127bc565b60405180910390f35b61044760048036038101906104429190613033565b611cb3565b6040516104549190612893565b60405180910390f35b610477600480360381019061047291906129b0565b611d6c565b005b610493600480360381019061048e9190612866565b611d8e565b6040516104a09190612893565b60405180910390f35b6104c360048036038101906104be9190613073565b611e3a565b005b6104cd611ff6565b6040516104da91906127bc565b60405180910390f35b60018180516020810182018051848252602083016020850120818352809550505050505060009150905080600001805461051c9061312d565b80601f01602080910402602001604051908101604052809291908181526020018280546105489061312d565b80156105955780601f1061056a57610100808354040283529160200191610595565b820191906000526020600020905b81548152906001019060200180831161057857829003601f168201915b5050505050908060010180546105aa9061312d565b80601f01602080910402602001604051908101604052809291908181526020018280546105d69061312d565b80156106235780601f106105f857610100808354040283529160200191610623565b820191906000526020600020905b81548152906001019060200180831161060657829003601f168201915b5050505050908060020180546106389061312d565b80601f01602080910402602001604051908101604052809291908181526020018280546106649061312d565b80156106b15780601f10610686576101008083540402835291602001916106b1565b820191906000526020600020905b81548152906001019060200180831161069457829003601f168201915b5050505050908060030180546106c69061312d565b80601f01602080910402602001604051908101604052809291908181526020018280546106f29061312d565b801561073f5780601f106107145761010080835404028352916020019161073f565b820191906000526020600020905b81548152906001019060200180831161072257829003601f168201915b5050505050908060040160009054906101000a900473ffffffffffffffffffffffffffffffffffffffff169080600501805461077a9061312d565b80601f01602080910402602001604051908101604052809291908181526020018280546107a69061312d565b80156107f35780601f106107c8576101008083540402835291602001916107f3565b820191906000526020600020905b8154815290600101906020018083116107d657829003601f168201915b5050505050908060060160009054906101000a900460ff16905087565b60007f7965db0b000000000000000000000000000000000000000000000000000000007bffffffffffffffffffffffffffffffffffffffffffffffffffffffff1916827bffffffffffffffffffffffffffffffffffffffffffffffffffffffff1916148061088357506108828261201a565b5b9050919050565b7f20b5f7ac978e5d6199de06401411960dfa81d2f762655f6206bdc61d46fc19e681565b7f2a5f906c256a5d799494fcd066e1f6c077689de1cdb65052a1624de4bace99bf81565b6000806000838152602001908152602001600020600101549050919050565b6005818154811061090157600080fd5b90600052602060002001600091509050805461091c9061312d565b80601f01602080910402602001604051908101604052809291908181526020018280546109489061312d565b80156109955780601f1061096a57610100808354040283529160200191610995565b820191906000526020600020905b81548152906001019060200180831161097857829003601f168201915b505050505081565b7feefb95e842a3287179d933b4460be539a1d5af11aa8b325bb45c5c8dc92de4ed6109c781612084565b6001856040516109d7919061319a565b908152602001604051809103902060060160009054906101000a900460ff16610a35576040517f08c379a0000000000000000000000000000000000000000000000000000000008152600401610a2c906131fd565b60405180910390fd5b6000600287604051610a47919061319a565b90815260200160405180910390206003015414610a99576040517f08c379a0000000000000000000000000000000000000000000000000000000008152600401610a9090613269565b60405180910390fd5b6040518061012001604052808781526020018681526020018581526020014281526020018481526020013373ffffffffffffffffffffffffffffffffffffffff16815260200160006007811115610af357610af2612a77565b5b815260200183815260200160001515815250600287604051610b15919061319a565b90815260200160405180910390206000820151816000019081610b389190613435565b506020820151816001019081610b4e9190613435565b5060408201518160020155606082015181600301556080820151816004015560a08201518160050160006101000a81548173ffffffffffffffffffffffffffffffffffffffff021916908373ffffffffffffffffffffffffffffffffffffffff16021790555060c08201518160050160146101000a81548160ff02191690836007811115610bdf57610bde612a77565b5b021790555060e0820151816006019081610bf99190613435565b506101008201518160070160006101000a81548160ff021916908315150217905550905050600586908060018154018082558091505060019003906000526020600020016000909190919091509081610c529190613435565b50600660003373ffffffffffffffffffffffffffffffffffffffff1673ffffffffffffffffffffffffffffffffffffffff16815260200190815260200160002086908060018154018082558091505060019003906000526020600020016000909190919091509081610cc49190613435565b50610d3b866040518060400160405280600781526020017f4352454154454400000000000000000000000000000000000000000000000000815250846040518060400160405280601281526020017f4261746368206d616e7566616374757265640000000000000000000000000000815250612098565b3373ffffffffffffffffffffffffffffffffffffffff167f14a4819b534290cb8ccfb4060d5410e04c15b9493bccae224d5b9ae9e6f939d08787604051610d83929190613507565b60405180910390a2505050505050565b610d9c826108d2565b610da581612084565b610daf83836121b7565b50505050565b610dbd6122a8565b73ffffffffffffffffffffffffffffffffffffffff168173ffffffffffffffffffffffffffffffffffffffff1614610e21576040517f6697b23200000000000000000000000000000000000000000000000000000000815260040160405180910390fd5b610e2b82826122b0565b505050565b7f20b5f7ac978e5d6199de06401411960dfa81d2f762655f6206bdc61d46fc19e6610e5a81612084565b6001600284604051610e6c919061319a565b908152602001604051809103902060070160006101000a81548160ff0219169083151502179055506005600284604051610ea6919061319a565b908152602001604051809103902060050160146101000a81548160ff02191690836007811115610ed957610ed8612a77565b5b0217905550610f54836040518060400160405280600681526020017f524543414c4c00000000000000000000000000000000000000000000000000008152506040518060400160405280600c81526020017f486561647175617274657273000000000000000000000000000000000000000081525085612098565b3373ffffffffffffffffffffffffffffffffffffffff167f6f772b5d72c902681c45f7dd6dc92f0316765adf1a0e11d7e760ca5626135d008484604051610f9c929190613507565b60405180910390a2505050565b600281805160208101820180518482526020830160208501208183528095505050505050600091509050806000018054610fe29061312d565b80601f016020809104026020016040519081016040528092919081815260200182805461100e9061312d565b801561105b5780601f106110305761010080835404028352916020019161105b565b820191906000526020600020905b81548152906001019060200180831161103e57829003601f168201915b5050505050908060010180546110709061312d565b80601f016020809104026020016040519081016040528092919081815260200182805461109c9061312d565b80156110e95780601f106110be576101008083540402835291602001916110e9565b820191906000526020600020905b8154815290600101906020018083116110cc57829003601f168201915b5050505050908060020154908060030154908060040154908060050160009054906101000a900473ffffffffffffffffffffffffffffffffffffffff16908060050160149054906101000a900460ff16908060060180546111499061312d565b80601f01602080910402602001604051908101604052809291908181526020018280546111759061312d565b80156111c25780601f10611197576101008083540402835291602001916111c2565b820191906000526020600020905b8154815290600101906020018083116111a557829003601f168201915b5050505050908060070160009054906101000a900460ff16905089565b600080600084815260200190815260200160002060000160008373ffffffffffffffffffffffffffffffffffffffff1673ffffffffffffffffffffffffffffffffffffffff16815260200190815260200160002060009054906101000a900460ff16905092915050565b7feefb95e842a3287179d933b4460be539a1d5af11aa8b325bb45c5c8dc92de4ed81565b600382805160208101820180518482526020830160208501208183528095505050505050818154811061129f57600080fd5b9060005260206000209060050201600091509150508060000160009054906101000a900473ffffffffffffffffffffffffffffffffffffffff16908060010180546112e99061312d565b80601f01602080910402602001604051908101604052809291908181526020018280546113159061312d565b80156113625780601f1061133757610100808354040283529160200191611362565b820191906000526020600020905b81548152906001019060200180831161134557829003601f168201915b50505050509080600201549080600301805461137d9061312d565b80601f01602080910402602001604051908101604052809291908181526020018280546113a99061312d565b80156113f65780601f106113cb576101008083540402835291602001916113f6565b820191906000526020600020905b8154815290600101906020018083116113d957829003601f168201915b50505050509080600401805461140b9061312d565b80601f01602080910402602001604051908101604052809291908181526020018280546114379061312d565b80156114845780601f1061145957610100808354040283529160200191611484565b820191906000526020600020905b81548152906001019060200180831161146757829003601f168201915b5050505050905085565b60006002866040516114a0919061319a565b908152602001604051809103902090508060050160009054906101000a900473ffffffffffffffffffffffffffffffffffffffff1673ffffffffffffffffffffffffffffffffffffffff163373ffffffffffffffffffffffffffffffffffffffff1614611542576040517f08c379a00000000000000000000000000000000000000000000000000000000081526004016115399061358a565b60405180910390fd5b8060070160009054906101000a900460ff1615611594576040517f08c379a000000000000000000000000000000000000000000000000000000000815260040161158b906135f6565b60405180910390fd5b60008160050160009054906101000a900473ffffffffffffffffffffffffffffffffffffffff169050858260050160006101000a81548173ffffffffffffffffffffffffffffffffffffffff021916908373ffffffffffffffffffffffffffffffffffffffff1602179055508460ff16600781111561161657611615612a77565b5b8260050160146101000a81548160ff0219169083600781111561163c5761163b612a77565b5b0217905550838260060190816116529190613435565b50600660008773ffffffffffffffffffffffffffffffffffffffff1673ffffffffffffffffffffffffffffffffffffffff168152602001908152602001600020879080600181540180825580915050600190039060005260206000200160009091909190915090816116c49190613435565b50611706876040518060400160405280600b81526020017f5452414e534645525245440000000000000000000000000000000000000000008152508686612098565b8573ffffffffffffffffffffffffffffffffffffffff168173ffffffffffffffffffffffffffffffffffffffff167f22f5a95897b9548e10833de6d14e743f67c0e76c0eb6e64814cbbc60eab8d176898860ff16600781111561176c5761176b612a77565b5b60405161177a929190613616565b60405180910390a350505050505050565b6000801b81565b60606003826040516117a4919061319a565b9081526020016040518091039020805480602002602001604051908101604052809291908181526020016000905b82821015611a1a57838290600052602060002090600502016040518060a00160405290816000820160009054906101000a900473ffffffffffffffffffffffffffffffffffffffff1673ffffffffffffffffffffffffffffffffffffffff1673ffffffffffffffffffffffffffffffffffffffff16815260200160018201805461185b9061312d565b80601f01602080910402602001604051908101604052809291908181526020018280546118879061312d565b80156118d45780601f106118a9576101008083540402835291602001916118d4565b820191906000526020600020905b8154815290600101906020018083116118b757829003601f168201915b50505050508152602001600282015481526020016003820180546118f79061312d565b80601f01602080910402602001604051908101604052809291908181526020018280546119239061312d565b80156119705780601f1061194557610100808354040283529160200191611970565b820191906000526020600020905b81548152906001019060200180831161195357829003601f168201915b505050505081526020016004820180546119899061312d565b80601f01602080910402602001604051908101604052809291908181526020018280546119b59061312d565b8015611a025780601f106119d757610100808354040283529160200191611a02565b820191906000526020600020905b8154815290600101906020018083116119e557829003601f168201915b505050505081525050815260200190600101906117d2565b505050509050919050565b7feefb95e842a3287179d933b4460be539a1d5af11aa8b325bb45c5c8dc92de4ed611a4f81612084565b600186604051611a5f919061319a565b908152602001604051809103902060060160009054906101000a900460ff1615611abe576040517f08c379a0000000000000000000000000000000000000000000000000000000008152600401611ab590613692565b60405180910390fd5b6040518060e001604052808781526020018681526020018581526020018381526020013373ffffffffffffffffffffffffffffffffffffffff16815260200184815260200160011515815250600187604051611b1a919061319a565b90815260200160405180910390206000820151816000019081611b3d9190613435565b506020820151816001019081611b539190613435565b506040820151816002019081611b699190613435565b506060820151816003019081611b7f9190613435565b5060808201518160040160006101000a81548173ffffffffffffffffffffffffffffffffffffffff021916908373ffffffffffffffffffffffffffffffffffffffff16021790555060a0820151816005019081611bdc9190613435565b5060c08201518160060160006101000a81548160ff021916908315150217905550905050600486908060018154018082558091505060019003906000526020600020016000909190919091509081611c349190613435565b503373ffffffffffffffffffffffffffffffffffffffff167f60268ef7a6e13d516f1f5f316c8b0000b39c8401d377d0c660fdbef8f53779d7878787604051611c7f939291906136b2565b60405180910390a2505050505050565b7fded9b5e0e0e3a2b3f09a0bc36ec64b9bf7a7c2319f3c4d9cff5ce48714257b2181565b60066020528160005260406000208181548110611ccf57600080fd5b90600052602060002001600091509150508054611ceb9061312d565b80601f0160208091040260200160405190810160405280929190818152602001828054611d179061312d565b8015611d645780601f10611d3957610100808354040283529160200191611d64565b820191906000526020600020905b815481529060010190602001808311611d4757829003601f168201915b505050505081565b611d75826108d2565b611d7e81612084565b611d8883836122b0565b50505050565b60048181548110611d9e57600080fd5b906000526020600020016000915090508054611db99061312d565b80601f0160208091040260200160405190810160405280929190818152602001828054611de59061312d565b8015611e325780601f10611e0757610100808354040283529160200191611e32565b820191906000526020600020905b815481529060010190602001808311611e1557829003601f168201915b505050505081565b7f2a5f906c256a5d799494fcd066e1f6c077689de1cdb65052a1624de4bace99bf611e6481612084565b6000600285604051611e76919061319a565b908152602001604051809103902090508060050160009054906101000a900473ffffffffffffffffffffffffffffffffffffffff1673ffffffffffffffffffffffffffffffffffffffff163373ffffffffffffffffffffffffffffffffffffffff1614611f18576040517f08c379a0000000000000000000000000000000000000000000000000000000008152600401611f0f9061374a565b60405180910390fd5b83816002015410611f3f5783816002016000828254611f379190613799565b925050819055505b6000816002015403611f795760048160050160146101000a81548160ff02191690836007811115611f7357611f72612a77565b5b02179055505b611fef856040518060400160405280600481526020017f534f4c4400000000000000000000000000000000000000000000000000000000815250856040518060400160405280601081526020017f536f6c6420746f20636f6e73756d657200000000000000000000000000000000815250612098565b5050505050565b7ffbd454f36a7e1a388bd6fc3ab10d434aa4578f811acbbcf33afb1c697486313c81565b60007f01ffc9a7000000000000000000000000000000000000000000000000000000007bffffffffffffffffffffffffffffffffffffffffffffffffffffffff1916827bffffffffffffffffffffffffffffffffffffffffffffffffffffffff1916149050919050565b612095816120906122a8565b6123a2565b50565b6003846040516120a8919061319a565b90815260200160405180910390206040518060a001604052803373ffffffffffffffffffffffffffffffffffffffff16815260200185815260200142815260200184815260200183815250908060018154018082558091505060019003906000526020600020906005020160009091909190915060008201518160000160006101000a81548173ffffffffffffffffffffffffffffffffffffffff021916908373ffffffffffffffffffffffffffffffffffffffff16021790555060208201518160010190816121789190613435565b506040820151816002015560608201518160030190816121989190613435565b5060808201518160040190816121ae9190613435565b50505050505050565b60006121c383836111df565b61229d57600160008085815260200190815260200160002060000160008473ffffffffffffffffffffffffffffffffffffffff1673ffffffffffffffffffffffffffffffffffffffff16815260200190815260200160002060006101000a81548160ff02191690831515021790555061223a6122a8565b73ffffffffffffffffffffffffffffffffffffffff168273ffffffffffffffffffffffffffffffffffffffff16847f2f8788117e7eff1d82e926ec794901d17c78024a50270940304540a733656f0d60405160405180910390a4600190506122a2565b600090505b92915050565b600033905090565b60006122bc83836111df565b1561239757600080600085815260200190815260200160002060000160008473ffffffffffffffffffffffffffffffffffffffff1673ffffffffffffffffffffffffffffffffffffffff16815260200190815260200160002060006101000a81548160ff0219169083151502179055506123346122a8565b73ffffffffffffffffffffffffffffffffffffffff168273ffffffffffffffffffffffffffffffffffffffff16847ff6391f5c32d9c69d2a47ea670b442974b53935d1edc7fd64eb21e047a839171b60405160405180910390a46001905061239c565b600090505b92915050565b6123ac82826111df565b6123ef5780826040517fe2517d3f0000000000000000000000000000000000000000000000000000000081526004016123e69291906137cd565b60405180910390fd5b5050565b6000604051905090565b600080fd5b600080fd5b600080fd5b600080fd5b6000601f19601f8301169050919050565b7f4e487b7100000000000000000000000000000000000000000000000000000000600052604160045260246000fd5b61245a82612411565b810181811067ffffffffffffffff8211171561247957612478612422565b5b80604052505050565b600061248c6123f3565b90506124988282612451565b919050565b600067ffffffffffffffff8211156124b8576124b7612422565b5b6124c182612411565b9050602081019050919050565b82818337600083830152505050565b60006124f06124eb8461249d565b612482565b90508281526020810184848401111561250c5761250b61240c565b5b6125178482856124ce565b509392505050565b600082601f83011261253457612533612407565b5b81356125448482602086016124dd565b91505092915050565b600060208284031215612563576125626123fd565b5b600082013567ffffffffffffffff81111561258157612580612402565b5b61258d8482850161251f565b91505092915050565b600081519050919050565b600082825260208201905092915050565b60005b838110156125d05780820151818401526020810190506125b5565b60008484015250505050565b60006125e782612596565b6125f181856125a1565b93506126018185602086016125b2565b61260a81612411565b840191505092915050565b600073ffffffffffffffffffffffffffffffffffffffff82169050919050565b600061264082612615565b9050919050565b61265081612635565b82525050565b60008115159050919050565b61266b81612656565b82525050565b600060e082019050818103600083015261268b818a6125dc565b9050818103602083015261269f81896125dc565b905081810360408301526126b381886125dc565b905081810360608301526126c781876125dc565b90506126d66080830186612647565b81810360a08301526126e881856125dc565b90506126f760c0830184612662565b98975050505050505050565b60007fffffffff0000000000000000000000000000000000000000000000000000000082169050919050565b61273881612703565b811461274357600080fd5b50565b6000813590506127558161272f565b92915050565b600060208284031215612771576127706123fd565b5b600061277f84828501612746565b91505092915050565b600060208201905061279d6000830184612662565b92915050565b6000819050919050565b6127b6816127a3565b82525050565b60006020820190506127d160008301846127ad565b92915050565b6127e0816127a3565b81146127eb57600080fd5b50565b6000813590506127fd816127d7565b92915050565b600060208284031215612819576128186123fd565b5b6000612827848285016127ee565b91505092915050565b6000819050919050565b61284381612830565b811461284e57600080fd5b50565b6000813590506128608161283a565b92915050565b60006020828403121561287c5761287b6123fd565b5b600061288a84828501612851565b91505092915050565b600060208201905081810360008301526128ad81846125dc565b905092915050565b600080600080600060a086880312156128d1576128d06123fd565b5b600086013567ffffffffffffffff8111156128ef576128ee612402565b5b6128fb8882890161251f565b955050602086013567ffffffffffffffff81111561291c5761291b612402565b5b6129288882890161251f565b945050604061293988828901612851565b935050606061294a88828901612851565b925050608086013567ffffffffffffffff81111561296b5761296a612402565b5b6129778882890161251f565b9150509295509295909350565b61298d81612635565b811461299857600080fd5b50565b6000813590506129aa81612984565b92915050565b600080604083850312156129c7576129c66123fd565b5b60006129d5858286016127ee565b92505060206129e68582860161299b565b9150509250929050565b60008060408385031215612a0757612a066123fd565b5b600083013567ffffffffffffffff811115612a2557612a24612402565b5b612a318582860161251f565b925050602083013567ffffffffffffffff811115612a5257612a51612402565b5b612a5e8582860161251f565b9150509250929050565b612a7181612830565b82525050565b7f4e487b7100000000000000000000000000000000000000000000000000000000600052602160045260246000fd5b60088110612ab757612ab6612a77565b5b50565b6000819050612ac882612aa6565b919050565b6000612ad882612aba565b9050919050565b612ae881612acd565b82525050565b6000610120820190508181036000830152612b09818c6125dc565b90508181036020830152612b1d818b6125dc565b9050612b2c604083018a612a68565b612b396060830189612a68565b612b466080830188612a68565b612b5360a0830187612647565b612b6060c0830186612adf565b81810360e0830152612b7281856125dc565b9050612b82610100830184612662565b9a9950505050505050505050565b60008060408385031215612ba757612ba66123fd565b5b600083013567ffffffffffffffff811115612bc557612bc4612402565b5b612bd18582860161251f565b9250506020612be285828601612851565b9150509250929050565b600060a082019050612c016000830188612647565b8181036020830152612c1381876125dc565b9050612c226040830186612a68565b8181036060830152612c3481856125dc565b90508181036080830152612c4881846125dc565b90509695505050505050565b600060ff82169050919050565b612c6a81612c54565b8114612c7557600080fd5b50565b600081359050612c8781612c61565b92915050565b600080600080600060a08688031215612ca957612ca86123fd565b5b600086013567ffffffffffffffff811115612cc757612cc6612402565b5b612cd38882890161251f565b9550506020612ce48882890161299b565b9450506040612cf588828901612c78565b935050606086013567ffffffffffffffff811115612d1657612d15612402565b5b612d228882890161251f565b925050608086013567ffffffffffffffff811115612d4357612d42612402565b5b612d4f8882890161251f565b9150509295509295909350565b600081519050919050565b600082825260208201905092915050565b6000819050602082019050919050565b612d9181612635565b82525050565b600082825260208201905092915050565b6000612db382612596565b612dbd8185612d97565b9350612dcd8185602086016125b2565b612dd681612411565b840191505092915050565b612dea81612830565b82525050565b600060a083016000830151612e086000860182612d88565b5060208301518482036020860152612e208282612da8565b9150506040830151612e356040860182612de1565b5060608301518482036060860152612e4d8282612da8565b91505060808301518482036080860152612e678282612da8565b9150508091505092915050565b6000612e808383612df0565b905092915050565b6000602082019050919050565b6000612ea082612d5c565b612eaa8185612d67565b935083602082028501612ebc85612d78565b8060005b85811015612ef85784840389528151612ed98582612e74565b9450612ee483612e88565b925060208a01995050600181019050612ec0565b50829750879550505050505092915050565b60006020820190508181036000830152612f248184612e95565b905092915050565b600080600080600060a08688031215612f4857612f476123fd565b5b600086013567ffffffffffffffff811115612f6657612f65612402565b5b612f728882890161251f565b955050602086013567ffffffffffffffff811115612f9357612f92612402565b5b612f9f8882890161251f565b945050604086013567ffffffffffffffff811115612fc057612fbf612402565b5b612fcc8882890161251f565b935050606086013567ffffffffffffffff811115612fed57612fec612402565b5b612ff98882890161251f565b925050608086013567ffffffffffffffff81111561301a57613019612402565b5b6130268882890161251f565b9150509295509295909350565b6000806040838503121561304a576130496123fd565b5b60006130588582860161299b565b925050602061306985828601612851565b9150509250929050565b60008060006060848603121561308c5761308b6123fd565b5b600084013567ffffffffffffffff8111156130aa576130a9612402565b5b6130b68682870161251f565b93505060206130c786828701612851565b925050604084013567ffffffffffffffff8111156130e8576130e7612402565b5b6130f48682870161251f565b9150509250925092565b7f4e487b7100000000000000000000000000000000000000000000000000000000600052602260045260246000fd5b6000600282049050600182168061314557607f821691505b602082108103613158576131576130fe565b5b50919050565b600081905092915050565b600061317482612596565b61317e818561315e565b935061318e8185602086016125b2565b80840191505092915050565b60006131a68284613169565b915081905092915050565b7f50726f64756374206e6f74207265676973746572656400000000000000000000600082015250565b60006131e76016836125a1565b91506131f2826131b1565b602082019050919050565b60006020820190508181036000830152613216816131da565b9050919050565b7f4261746368204944206578697374730000000000000000000000000000000000600082015250565b6000613253600f836125a1565b915061325e8261321d565b602082019050919050565b6000602082019050818103600083015261328281613246565b9050919050565b60008190508160005260206000209050919050565b60006020601f8301049050919050565b600082821b905092915050565b6000600883026132eb7fffffffffffffffffffffffffffffffffffffffffffffffffffffffffffffffff826132ae565b6132f586836132ae565b95508019841693508086168417925050509392505050565b6000819050919050565b600061333261332d61332884612830565b61330d565b612830565b9050919050565b6000819050919050565b61334c83613317565b61336061335882613339565b8484546132bb565b825550505050565b600090565b613375613368565b613380818484613343565b505050565b5b818110156133a45761339960008261336d565b600181019050613386565b5050565b601f8211156133e9576133ba81613289565b6133c38461329e565b810160208510156133d2578190505b6133e66133de8561329e565b830182613385565b50505b505050565b600082821c905092915050565b600061340c600019846008026133ee565b1980831691505092915050565b600061342583836133fb565b9150826002028217905092915050565b61343e82612596565b67ffffffffffffffff81111561345757613456612422565b5b613461825461312d565b61346c8282856133a8565b600060209050601f83116001811461349f576000841561348d578287015190505b6134978582613419565b8655506134ff565b601f1984166134ad86613289565b60005b828110156134d5578489015182556001820191506020850194506020810190506134b0565b868310156134f257848901516134ee601f8916826133fb565b8355505b6001600288020188555050505b505050505050565b6000604082019050818103600083015261352181856125dc565b9050818103602083015261353581846125dc565b90509392505050565b7f4e6f74206261746368206f776e65720000000000000000000000000000000000600082015250565b6000613574600f836125a1565b915061357f8261353e565b602082019050919050565b600060208201905081810360008301526135a381613567565b9050919050565b7f426174636820697320726563616c6c6564000000000000000000000000000000600082015250565b60006135e06011836125a1565b91506135eb826135aa565b602082019050919050565b6000602082019050818103600083015261360f816135d3565b9050919050565b6000604082019050818103600083015261363081856125dc565b905061363f6020830184612adf565b9392505050565b7f50726f6475637420494420657869737473000000000000000000000000000000600082015250565b600061367c6011836125a1565b915061368782613646565b602082019050919050565b600060208201905081810360008301526136ab8161366f565b9050919050565b600060608201905081810360008301526136cc81866125dc565b905081810360208301526136e081856125dc565b905081810360408301526136f481846125dc565b9050949350505050565b7f4e6f74206f776e65720000000000000000000000000000000000000000000000600082015250565b60006137346009836125a1565b915061373f826136fe565b602082019050919050565b6000602082019050818103600083015261376381613727565b9050919050565b7f4e487b7100000000000000000000000000000000000000000000000000000000600052601160045260246000fd5b60006137a482612830565b91506137af83612830565b92508282039050818111156137c7576137c661376a565b5b92915050565b60006040820190506137e26000830185612647565b6137ef60208301846127ad565b939250505056fea2646970667358221220d60572aaf71e9d8e9481b97ac680b2a1362cb8349bf4704610d15e9b5c6fc3ce64736f6c63430008180033",
  "linkReferences": {},
  "deployedLinkReferences": {}
}